:100000000A128A11E42F83120313AC1F082809284F
:100010000B28AB01AC01AD01AE0125282030F0006A
:100020000030F100831203132808F2002908F300BE
:100030000A168A157E250A128A11013083120313CB
:10004000AD070318AE0A0030AE072E08803AFD0057
:100050002C08803A7D02031D2F282B082D02031C3B
:10006000322833280E28831203132A08A0002808F8
:10007000A1002908A2000A168A15E9220A128A118B
:1000800008003F3083160313CB008030CA000030D5
:10009000C9000030C800AF01B0014708F3004608AE
:1000A000F2004508F1004408F0000030F70000308D
:1000B000F6000030F5000030F4000A168A152F24EF
:1000C0000A128A11031865286628952A772883164C
:1000D00003133608CB003508CA003408C9003308BA
:1000E000C8000130AF070318B00A0030B007413034
:1000F00083120313A3002030A2000030A1000030BF
:10010000A000831603134B0883120313A700831662
:1001100003134A0883120313A60083160313490826
:1001200083120313A50083160313480883120313D5
:10013000A4000A128A15BE240A128A11831203131C
:10014000230883160313B6008312031322088316B1
:100150000313B50083120313210883160313B4009D
:1001600083120313200883160313B3004408831279
:100170000313D50083160313450883120313D60017
:1001800083160313460883120313D7008316031341
:10019000470883120313D80083160313330883120E
:1001A0000313D502831603133408031C340FD92814
:1001B000DC2883120313D602831603133508031CAD
:1001C000350FE328E62883120313D702831603139F
:1001D0003608031C360FED28F02883120313D802CB
:1001E00083160313831203135808F3005708F20011
:1001F0005608F1005508F0000A168A11DC200A1290
:100200008A11F31B13297308031D14297208031D97
:1002100014297108031D142902307002031D1029CE
:10022000031C132914296728831603133608831225
:100230000313B80083160313350883120313B700A2
:1002400083160313340883120313B60083160313B3
:10025000330883120313B500831603134708831270
:100260000313BC0083160313460883120313BB0059
:1002700083160313450883120313BA00831603136E
:10028000440883120313B9000A168A15B8260A1205
:100290008A11031C4C294D2967288316031344082F
:1002A00083120313D5008316031345088312031327
:1002B000D60083160313460883120313D700831650
:1002C0000313470883120313D80083160313480847
:1002D00083120313D502831603134908031C490F25
:1002E0007229752983120313D602831603134A0851
:1002F000031C4A0F7C297F2983120313D70283161C
:1003000003134B08031C4B0F8629892983120313FF
:10031000D80283160313831203135808F3005708F7
:10032000F2005608F1005508F0000A168A11DC2088
:100330000A128A11F31BAD297308031DAC29720838
:10034000031DAC297108031DAC2902307002031D86
:10035000A9290318AC29AD295C2A831603134B087D
:10036000C7004A08C6004908C5004808C400952AC5
:10037000413083120313A3002030A2000030A100FB
:100380000030A000831603134B0883120313A70049
:10039000831603134A0883120313A600831603135C
:1003A000490883120313A500831603134808831218
:1003B0000313A4000A128A1598200A128A118312C4
:1003C0000313230883160313CB008312031322089D
:1003D00083160313CA008312031321088316031321
:1003E000C90083120313200883160313C800FF30CB
:1003F000AF070318B00AFF30B00744088312031395
:10040000D50083160313450883120313D600831601
:100410000313460883120313D700831603134708F8
:1004200083120313D800831603134808831203139F
:10043000D502831603134908031C490F202A232AD7
:1004400083120313D602831603134A08031C4A0FB0
:100450002A2A2D2A83120313D702831603134B086B
:10046000031C4B0F342A372A83120313D802831636
:100470000313831203135808F3005708F2005608B9
:10048000F1005508F0000A168A11DC200A128A11C0
:10049000F31B5B2A7308031D5A2A7208031D5A2A8C
:1004A0007108031D5A2A02307002031D572A0318CF
:1004B0005A2A5B2A5C2AAD29831603134708831244
:1004C0000313B80083160313460883120313B700FF
:1004D00083160313450883120313B6008316031310
:1004E000440883120313B500831603134B088312C9
:1004F0000313BC00831603134A0883120313BB00C3
:1005000083160313490883120313BA0083160313D7
:10051000480883120313B9000A168A15B8260A126E
:100520008A11031C942A952AB829831203135408AC
:1005300083160313A9002908AA00EB1BA02AA12AED
:10054000A62A6B08A3006A08A200AA2A0630A20005
:100550000030A3002308AE002208AD000130AD0733
:100560000318AE0A0030AE0766302A06031DB92A0A
:10057000BA2AD42AB01FBD2ABE2AC82A3F30CB00CF
:100580008030CA000030C9000030C800AF01B0019F
:10059000673029060319CD2ACE2AD42A2F08AD07A1
:1005A0000318AE0A3008AE07B701B8014708BC000F
:1005B0004608BB004508BA004408B9004B08B6001D
:1005C0004A08B5004908B4004808B3000D2C83164A
:1005D00003134B0883120313A300831603134A0863
:1005E00083120313A2008316031349088312031313
:1005F000A10083160313480883120313A000831677
:1006000003133C0883120313A700831603133B084C
:1006100083120313A600831603133A0883120313ED
:10062000A50083160313390883120313A4000A12CA
:100630008A1598200A128A11831203132308BD0019
:100640002208BC002108BB002008BA000A168A1143
:1006500003230A128A11831203133D08831603131E
:10066000C000831203133C0883160313BF008312D8
:1006700003133B0883160313BE00831203133A08C7
:1006800083160313BD004008F3003F08F2003E0844
:10069000F1003D08F0000A168A157D240A128A111D
:1006A000710883160313AC007008AB004B0883126B
:1006B0000313A700831603134A0883120313A6002B
:1006C00083160313490883120313A500831603132B
:1006D000480883120313A4008316031340088312EF
:1006E0000313A300831603133F0883120313A2000E
:1006F000831603133E0883120313A100831603130A
:100700003D0883120313A0000A128A15BE240A12A0
:100710008A11831203132308B8002208B7002108A6
:10072000B6002008B500831603133C088312031398
:10073000BC00831603133B0883120313BB0083160C
:1007400003133A0883120313BA00831603133908FC
:1007500083120313B9000A168A1509220A128A1194
:1007600083120313380883160313BC008312031388
:10077000370883160313BB0083120313360883164E
:100780000313BA0083120313350883160313B90049
:10079000413083120313A3002030A2000030A100D7
:1007A0000030A000831603134B0883120313A70025
:1007B000831603134A0883120313A6008316031338
:1007C000490883120313A5008316031348088312F4
:1007D0000313A4000A128A1598200A128A118312A0
:1007E0000313230883160313CB0083120313220879
:1007F00083160313CA0083120313210883160313FD
:10080000C90083120313200883160313C8000130A4
:10081000B7070318B80A0030B8073808803A8312BF
:100820000313D500831603132E08803A8312031393
:100830005502031D1F2C831603132D083702031CBA
:10084000222C232CE72A403083120313A300A0306C
:10085000A2000030A1000030A000831603134B0853
:1008600083120313A700831603134A08831203138A
:10087000A60083160313490883120313A5008316E9
:100880000313480883120313A4000A128A15BE2416
:100890000A128A1183120313230883160313C0005C
:1008A00083120313220883160313BF00831203135A
:1008B000210883160313BE00831203132008831636
:1008C0000313BD003C0883120313B80083160313FF
:1008D0003B0883120313B700831603133A088312ED
:1008E0000313B60083160313390883120313B500EC
:1008F00083160313400883120313BC0083160313EB
:100900003F0883120313BB00831603133E088312B0
:100910000313BA00831603133D0883120313B900AF
:100920000A168A15B8260A128A110318982C992CCF
:10093000A42C003083160313C0000030BF00003029
:10094000BE000030BD00CD2C831603133C08F3001D
:100950003B08F2003A08F1003908F0004008F700BF
:100960003F08F6003E08F5003D08F4000A168A1517
:100970002F240A128A11031CBE2CBF2CCD2C8316E7
:1009800003132B18C42CC52CCD2C0030C000003014
:10099000BF000030BE000030BD00831603134008C6
:1009A000F3003F08F2003E08F1003D08F000470860
:1009B000F7004608F6004508F5004408F4000A125E
:1009C0008A1562220A128A11730883160313BC0067
:1009D0007208BB007108BA007008B9003C088312A5
:1009E0000313B800831603133B0883120313B700E5
:1009F000831603133A0883120313B60083160313F6
:100A0000390883120313B5004130A3002030A2003F
:100A10000030A1000030A0008316031336088312B3
:100A20000313A70083160313350883120313A600CC
:100A300083160313340883120313A50083160313CC
:100A4000330883120313A4000A128A15BE240A1263
:100A50008A11831203132308BC002208BB0021085B
:100A6000BA002008B9000A168A15B8260A128A1197
:100A7000031C3B2D3C2D8F2D013083160313AF0734
:100A80000318B00A0030B007413083120313A300EB
:100A90002030A2000030A1000030A0008316031314
:100AA000360883120313A700831603133508831235
:100AB0000313A60083160313340883120313A5003F
:100AC00083160313330883120313A4000A128A1532
:100AD000BE240A128A1183120313230883160313F8
:100AE000B60083120313220883160313B500831282
:100AF0000313210883160313B40083120313200881
:100B000083160313B30066302A06031D882D892D32
:100B10008F2D0130AD070318AE0A0030AE078316E3
:100B200003133608CB003508CA003408C90033085F
:100B3000C8003008A1002F08A000A801A401A50149
:100B4000B701B801412F831603134B088312031317
:100B5000A300831603134A0883120313A20083160B
:100B60000313490883120313A100831603134808D3
:100B700083120313A000831603133C08831203138C
:100B8000A700831603133B0883120313A6008316E2
:100B900003133A0883120313A500831603133908BD
:100BA00083120313A4000A128A1598200A128A11CC
:100BB000831203132308BD002208BC002108BB00D8
:100BC0002008BA000A168A1103230A128A11831216
:100BD00003133D0883160313C000831203133C085C
:100BE00083160313BF00831203133B0883160313FA
:100BF000BE00831203133A0883160313BD00400896
:100C0000F3003F08F2003E08F1003D08F0000A162C
:100C10008A157D240A128A117108803AFF008030FB
:100C20007F02031D152E0A3070020318182E192E8C
:100C30002F2E831603134008F3003F08F2003E08EE
:100C4000F1003D08F0000A168A157D240A128A1167
:100C5000710883160313AC007008AB00352E093001
:100C600083160313AB000030AC002808031D392E97
:100C70003A2E6B2EA11F3D2E3E2E6B2E4208103EAB
:100C800084002E30831780000130C2070318C30A86
:100C90000030C307FF30B1070318B20AFF30B207B4
:100CA0000130A8006B2E4208103E840030308317BC
:100CB00080000130C2070318C30A0030C307FF30A9
:100CC000B1070318B20AFF30B207FF30A4070318B8
:100CD000A50AFF30A50724082504031D702E712ED8
:100CE000532E4208103E84002B08303E83178000AC
:100CF0000130C2070318C30A0030C307FF30B10731
:100D00000318B20AFF30B2074B0883120313A7007F
:100D1000831603134A0883120313A60083160313D2
:100D2000490883120313A50083160313480883128E
:100D30000313A40083160313400883120313A300B4
:100D4000831603133F0883120313A20083160313B1
:100D50003E0883120313A100831603133D08831278
:100D60000313A0000A128A15BE240A128A118312E4
:100D700003132308B8002208B7002108B600200892
:100D8000B500831603133C0883120313BC008316BB
:100D900003133B0883120313BB00831603133A08A3
:100DA00083120313BA008316031339088312031343
:100DB000B9000A168A1509220A128A11831203132E
:100DC000380883160313BC008312031337088316F5
:100DD0000313BB0083120313360883160313BA00F0
:100DE00083120313350883160313B90041308312AD
:100DF0000313A3002030A2000030A1000030A000A7
:100E0000831603134B0883120313A70083160313DF
:100E10004A0883120313A60083160313490883129A
:100E20000313A50083160313480883120313A400B9
:100E30000A128A1598200A128A11831203132308B2
:100E400083160313CB0083120313220883160313A4
:100E5000CA0083120313210883160313C9008312E7
:100E60000313200883160313C800FF30A0070318DC
:100E7000A10AFF30A1070130B7070318B80A0030F4
:100E8000B8073808803A83120313D500831603137A
:100E90002E08803A831203135502031D532F831625
:100EA00003132D0837020318562F572F662F83166A
:100EB00003134308803AFF0080307F02031D622F36
:100EC0004B304202031C652F662FA32D4F30831633
:100ED0000313B7000030B8003708103E84008317B2
:100EE0008001103083120313D500831603134208C8
:100EF00083120313D50283160313370883120313D7
:100F00005507F0001030F100831603134308F30077
:100F10004208F2000A168A15C5210A128A118316A0
:100F2000031342083702C2004308031C430A380275
:100F3000C3004108031D9D2F9F2F0130A02F0030BB
:100F400083120313D500D601550883160313B70087
:100F500083120313560883160313B80041080319BC
:100F6000B22FB32FBF2FFF30C2070318C30AFF30C1
:100F7000C3074208103E84004108831780003708E9
:100F8000B1023808031CB203B202831203134E08E5
:100F9000A8004F08A900831603134208103E8312CD
:100FA0000313AA0083160313320883120313AC0041
:100FB00083160313310883120313AB000A128A113C
:100FC00003200A128A11080083160313E801E901BD
:100FD000EA01EB01EC018317B2308400BA300A1643
:100FE0008A154B210A128A111030840060300A16CB
:100FF0008A154B210A128A1183010A168A11992E29
:10100400080083160313EB1F082809281028013051
:1010140083120313B5000030B6001A286B0883123C
:101024000313B600831603136A0883120313B5006F
:1010340083160313690883120313B400831603137E
:10104400680883120313B3004F30B7000030B800B0
:1010540083120317DF016B28FF3083120313B707D2
:101064000318B80AFF30B8073708103E84000A3066
:10107400F0000030F1003208F3003108F2000A16E3
:101084008A1541230A128A157008303E831780009E
:10109400FF3083120313B5070318B60AFF30B607EF
:1010A400FF30B3070318B40AFF30B4070A30F00066
:1010B4000030F1003208F3003108F2000A168A15F4
:1010C400ED230A128A15710883120313B200700803
:1010D400B1000313370838040319712872288528CE
:1010E40031083204031D772878282E283608803AE0
:1010F400FF0080307F02031D812801303502031870
:10110400842885282E28831203132F08A80030086A
:10111400A9003708103EAA003408AC003308AB001D
:101124000A128A1103200A128A1508008312031373
:101134002708B1008030B1052708A8002807B800A7
:10114400A61FA528A628A728381438080319AB28F1
:10115400AC28BC28380A031DB028B128B9280030AF
:10116400A7000030A6000030A5000030A400A61798
:10117400A701C4280030A7000030A6000030A50055
:101184000030A40023088039B1062308A8002807EA
:10119400B900A21FCE28CF28D02839143908031942
:1011A400D428D528E528390A031DD928DA28E228C5
:1011B4000030A3000030A2000030A1000030A000E5
:1011C400A217A301ED280030A3000030A2000030D4
:1011D400A1000030A0002308220421042004031DE0
:1011E400F428F5280C290030A7000030A6000030B0
:1011F400A5000030A4008030A6047F30A704310885
:10120400A7042708A3002608A2002508A100240893
:10121400A000612A3808031D102911291A29003059
:10122400A3000030A2000030A1000030A000612A19
:101234003808A800A9012908AB0039082802AA0027
:10124400031CAB032A087F3EB2002B080318013E9F
:10125400003EB3002708B0002608AF002508AE0002
:101264002408AD000030A7000030A6000030A5001F
:101274000030A4000030B7000030B6000030B500E4
:101284000030B400B9018E29390803194A294B29C1
:101294006B290130A8000310AD0DAE0DAF0DB00DDC
:1012A400A80B4D290130A8000310A40DA50DA60D0F
:1012B400A70DA80B5629B71F602961296229241498
:1012C4000130A8000310B40DB50DB60DB70DA80B71
:1012D400642923083002031D792922082F02031DE3
:1012E400792921082E02031D792920082D02031CC7
:1012F4007C297D298C2937172008AD022108031C7D
:10130400210FAE022208031C220FAF022308031C84
:10131400230FB0020130B9071A303902031C932994
:101324009429462930082F042E042D0403199B29DF
:101334009C29BB293414BB290130A8000310A40D37
:10134400A50DA60DA70DA80BA029B71FAA29AB2987
:10135400AC2924140130A8000310B40DB50DB60D4A
:10136400B70DA80BAE29FF30B2070318B30AFF303C
:10137400B307A61FBE29BF299E29B901B71FC329D8
:10138400C429E029FF303405A800FF303505A90041
:10139400FF303605AA007F303705AB002B082A043E
:1013A400290428040319D729D829DB290130B900D5
:1013B400E029241CDE29DF29E029D829390803196A
:1013C400E429E529162A0130A40700300318013066
:1013D400A507003003180130A607003003180130B8
:1013E400A707271CF629F729162A2408A800250888
:1013F400A9002608AA002708AB000130AC002B0D79
:10140400AB0CAA0CA90CA80CAC0B012A2B08A70046
:101414002A08A6002908A5002808A4000130B2075C
:101424000318B30A0030B3073308803AFF00803052
:101434007F02031D1F2AFF303202031C222A232AA3
:10144400312AFF3083120313B2000030B30000309E
:10145400A7000030A6000030A5000030A4008312CD
:1014640003133308803AFF0080307F02031D3C2AB7
:101474000130320203183F2A402A4D2A83120313F3
:10148400B201B3010030A7000030A6000030A5006F
:101494000030A400B101831203133208B800381CD1
:1014A400542A552A572AA617592A7F30A6053808E0
:1014B400A8000310280CA7003108A704032908007A
:1014C4007308F8008030F805730883120313A00032
:1014D4002007FA00F21F6F2A702A712A7A147A08F8
:1014E4000319752A762A862A7A0A031D7A2A7B2A00
:1014F400832A0030F3000030F2000030F1000030A5
:10150400F000F217F3018E2A0030F3000030F200ED
:101514000030F1000030F0007708F9008030F90560
:10152400790878060319972A982A992A7817770848
:10153400A0002007F900F61FA02AA12AA22A7914E4
:1015440079080319A62AA72AB72A790A031DAB2A00
:10155400AC2AB42A0030F7000030F6000030F50061
:101564000030F400F617F701BF2A0030F70000300E
:10157400F6000030F5000030F4007A087902031810
:10158400C42AC52AE92A781FC82AC92ACB2A803046
:10159400F8067A08FB007908FA007B08F90070085D
:1015A400FB007408F0007B08F4007108FB00750868
:1015B400F1007B08F5007208FB007608F2007B0856
:1015C400F6007308FB007708F3007B08F700FB01C3
:1015D4007908A000A1012108A3007A082002A20032
:1015E400031CA3032308803AFF0080307F02031DFD
:1015F400FD2A1A302202031C002B012B382B7308FE
:10160400720471047004031D082B0A2B01300B2B88
:101614000030FB000030F3000030F2000030F10035
:101624000030F0007908FA003E2B7B1C1A2B1B2B90
:10163400242B7B0883120313A0000310200C013811
:10164400FB00262B0310FB0C701C292B2A2B2B2BA5
:10165400FB17013083120313A000730DF30CF20C7B
:10166400F10CF00CA00B2F2B0130FA0779087A0249
:10167400031C3D2B3E2B172B781B412B422B8D2B10
:101684007A08031D462B472B502B0030F300003003
:10169400F2000030F1000030F000BD2C7408F007B7
:1016A400750803110318013E0319592BF107760835
:1016B40003110318013E0319602BF2077708031185
:1016C4000318013E0319672BF307731C6A2B6B2B5A
:1016D400452C7B1C6E2B6F2B782B7B0883120313FA
:1016E400A0000310200C0138FB007A2B0310FB0C24
:1016F400701C7D2B7E2B7F2BFB1701308312031371
:10170400A000730DF30CF20CF10CF00CA00B832B66
:101714000130FA07452C7308803AFF007708803AB5
:101724007F02031D9F2B76087202031D9F2B7508F1
:101734007102031D9F2B740870020318A22BA32BA4
:10174400FC2BFF3083120313A000FF30A100FF30F5
:10175400A200FF30A3007408A4007508A500760851
:10176400A6007708A7007008A4027108031C710F73
:10177400BC2BBD2BA5027208031C720FC22BC32BFA
:10178400A6027308031C730FC82BC92BA7022408D5
:10179400A00725080318250FD02BD12BA107260855
:1017A4000318260FD62BD72BA20727080318270ABE
:1017B400A3072308F3002208F2002108F1002008FF
:1017C400F0008030F8067B03FF3AFB007B08031D22
:1017D400EC2BED2B0A2C0130F007003003180130FC
:1017E400F107003003180130F2070030031801300C
:1017F400F3070A2C7408F0027508031C750FF10234
:101804007608031C760FF2027708031C770FF302A5
:101814007308720471047004031D112C122C412CE2
:101824007B08031D162C172C412C0030F3000030CC
:10183400F2000030F1000030F000BD2C01308312C2
:101844000313A0000310F00DF10DF20DF30DA00B26
:10185400242CFB1F2E2C2F2C302C70147B1C332C8F
:10186400342C382C03147B0DFB003A2C0310FB0D95
:101874007A0803193E2C3F2C412C0130FA02F21F46
:10188400442C452C202CF901FB1F492C4A2C582CA4
:101894007B087F3903194F2C502C532C0130F9004D
:1018A400582C701C562C572C582C502C7908031982
:1018B4005C2C5D2C912C0130F007003003180130B2
:1018C400F107003003180130F2070030031801302B
:1018D400F307731C6E2C6F2C912C70088312031366
:1018E400A0007108A1007208A2007308A3000130CF
:1018F400A400230DA30CA20CA10CA00CA40B7B2C04
:101904002308F3002208F2002108F1002008F00067
:101914007A0A03198E2C8F2C912C0130FA077A0A3B
:101924000319952C962C9B2C7A08031D9A2C9B2C1E
:10193400A92C0030F3000030F2000030F100003038
:10194400F0007A08031DA72CA82CA92CF8017A1CF6
:10195400AC2CAD2CAF2CF217B12C7F30F2057A08E9
:1019640083120313A0000310200CF300F81FBB2CF8
:10197400BC2CBD2CF3170800831203132308A80002
:101984008030A8052308F9007907AE00A21FCB2CEC
:10199400CC2CCD2C2E142E080319D12CD22CE12CB6
:1019A4002E0A031DD62CD72CDF2C0030A3000030C8
:1019B400A2000030A1000030A000A217E92C0030E2
:1019C400A3000030A2000030A1000030A0002708CE
:1019D4008039A8062708F9007907AD00A61FF32C63
:1019E400F42CF52C2D142D080319F92CFA2C092D9F
:1019F4002D0A031DFE2CFF2C072D0030A7000030FC
:101A0400A6000030A5000030A400A617112D003058
:101A1400A7000030A6000030A5000030A4002D0867
:101A24000319152D162D1B2D2E08031D1A2D1B2DE4
:101A3400242D0030A3000030A2000030A1000030AB
:101A4400A000FF2F2008F00026080A168A15C222DB
:101A54000A128A15710883120313B4007008B300C4
:101A64003308F900FA01FB01FC017C08AC007B0897
:101A7400AB007A08AA007908A9003408F900FA0131
:101A8400FB01FC017C08B2007B08B1007A08B000BD
:101A94007908AF002108F00025080A168A15C22229
:101AA4000A128A15710883120313B4007008B30074
:101AB4003308F900FA01FB01FC017908A9077A0847
:101AC40003110318013E0319682DAA077B080311AB
:101AD4000318013E03196F2DAB077C08031103188B
:101AE400013E0319762DAC073408F900FA01FB0115
:101AF400FC017908AF077A0803110318013E0319A2
:101B0400842DB0077B0803110318013E03198B2DA4
:101B1400B1077C0803110318013E0319922DB20783
:101B24002208F00024080A168A15C2220A128A150D
:101B3400710883120313B4007008B3003308F9006A
:101B4400FA01FB01FC017908A9077A0803110318BB
:101B5400013E0319AE2DAA077B0803110318013EA9
:101B64000319B52DAB077C0803110318013E0319B3
:101B7400BC2DAC073408F900FA01FB01FC0179081B
:101B8400AF077A0803110318013E0319CA2DB007E1
:101B94007B0803110318013E0319D12DB1077C08FA
:101BA40003110318013E0319D82DB2070830F900B8
:101BB4000310A90DAA0DAB0DAC0DF90BDA2D2108FC
:101BC400F00024080A168A15C2220A128A1571081E
:101BD40083120313B4007008B3003308F900340807
:101BE400FA00FB01FC017908A9077A08031103181C
:101BF400013E0319FE2DAA077B0803110318013EB9
:101C04000319052EAB077C0803110318013E0319C1
:101C14000C2EAC072008F00025080A168A15C222EB
:101C24000A128A15710883120313B4007008B300F2
:101C34003308F9003408FA00FB01FC017908A9070C
:101C44007A0803110318013E0319292EAA077B08F9
:101C540003110318013E0319302EAB077C0803114E
:101C64000318013E0319372EAC070830F90003109E
:101C7400A90DAA0DAB0DAC0DF90B392E2008F000FF
:101C840024080A168A15C2220A128A1571088312B8
:101C94000313B4007008B3003308F9003408FA00E1
:101CA400FB01FC017908A9077A0803110318013E16
:101CB40003195D2EAA077B0803110318013E0319BB
:101CC400642EAB077C0803110318013E03196B2E25
:101CD400AC072108F00026080A168A15C2220A1247
:101CE4008A15710883120313B4007008B300330813
:101CF400F9003408FA00FB01FC017908AF077A08FF
:101D040003110318013E0319882EB0077B08031141
:101D14000318013E03198F2EB1077C080311031821
:101D2400013E0319962EB2072208F00025080A1670
:101D34008A15C2220A128A15710883120313B40089
:101D44007008B3003308F9003408FA00FB01FC0101
:101D54007908AF077A0803110318013E0319B32E5B
:101D6400B0077B0803110318013E0319BA2EB1070B
:101D74007C0803110318013E0319C12EB20722087F
:101D8400F00026080A168A15C2220A128A1571085A
:101D940083120313B4007008B3003308F900340845
:101DA400FA00FB01FC0108300310F90DFA0DFB0DDC
:101DB400FC0DFF3E031DD62E7908AF077A080311E8
:101DC4000318013E0319E72EB0077B08031103181B
:101DD400013E0319EE2EB1077C0803110318013EDE
:101DE4000319F52EB2072908F9002A08FA002B086E
:101DF400FB002C08FC0018300310FC0CFB0CFA0C44
:101E0400F90CFF3E031DFE2E7908AF077A08031173
:101E14000318013E03190F2FB0077B0803110318A1
:101E2400013E0319162FB1077C0803110318013E64
:101E340003191D2FB2070830F9000310A90DAA0DCC
:101E4400AB0DAC0DF90B1F2F2E082D07F900FA016D
:101E5400FA0D7908823EB3007A080318013EFF3E6A
:101E6400B400512F0130F9000310AF0DB00DB10DC6
:101E7400B20DF90B362FAC1F402F412F422F2F14D8
:101E84000130F9000310A90DAA0DAB0DAC0DF90B2F
:101E9400442FFF30B3070318B40AFF30B407B11F4F
:101EA400542F552F342FAD01AC1F592F5A2F762F95
:101EB400FF302905F900FF302A05FA00FF302B0511
:101EC400FB007F302C05FC007C087B047A04790439
:101ED40003196D2F6E2F712F0130AD00762F2F1C3B
:101EE400742F752F762F6E2F2D0803197A2F7B2FC1
:101EF400AC2F0130AF07003003180130B0070030B9
:101F040003180130B107003003180130B207321C46
:101F14008C2F8D2FAC2F2F08F9003008FA003108D0
:101F2400FB003208FC000130FD007C0DFC0CFB0CB6
:101F3400FA0CF90CFD0B972F7C08B2007B08B1005A
:101F44007A08B0007908AF000130B3070318B40A67
:101F54000030B4073408803AFF0080307F02031D4C
:101F6400B52FFF303302031CB82FB92FC42F7F3095
:101F740083120313B2008030B1000030B00000308F
:101F8400AF00F52F831203133408803AFF0080302A
:101F94007F02031DCF2F013033020318D22FD32F1A
:101FA400DF2F003083120313B2000030B100003081
:101FB400B0000030AF00A801F52F831203133308DB
:101FC400AE00FF30AF05FF30B0057F30B105003003
:101FD400B2052E1CEE2FEF2FF02FB1172E08F900AB
:101FE4000310790CB2002808B2043208A3003108A7
:101FF400A2003008A1002F08A0000800FF1B0A2837
:1020040083137F1883170008840A0319FF0A080042
:1020140010308A000408840A82070034413454349E
:102024002B344334493450345334543441345234CB
:1020340054343D34223454344334503422342C3414
:1020440022346134703469342E347434683469341D
:102054006E34673473347034653461346B342E34C5
:1020640063346F346D3422342C34383430340D34CA
:102074000A340034413454342B34433457344A340E
:10208400413450343D34223454347534533453344D
:102094004934443422342C34223454347534503486
:1020A40041345334533422340D340A340034473425
:1020B4004534543420342F347534703464346134EA
:1020C400743465343F346134703469345F346B3450
:1020D400653479343D340034303456344B34473429
:1020E40049344434473451344234443459345334F5
:1020F4004D345A3445344134493400344134543431
:102104002B34433457344D344F34443445343D3404
:1021140031340D340A340034413454342B344334D0
:102124004934503443344C344F34533445340D34EF
:102134000A340034533469346E34203472346534D0
:1021440073347034753465347334743461340034E6
:10215400413454342B3443344934503453344534A7
:102164004E3444343D340034443469347334743468
:102174003A3425342E343234663463346D340034C6
:1021840026346634693465346C34643431343D3413
:10219400003425342E3432346634003469346E34D9
:1021A400663400346E3461346E340034253475344E
:0221B4000034F5
:1021B800F31BDF28E028E128F0287009F0007109F6
:1021C800F1007209F2007309F300F00A0319F10A29
:1021D8000319F20A0319F30A0800F901FA0176084B
:1021E80084008313000884000A168A110A200A163C
:1021F8008A112A3A031D012902292E29760884000A
:1022080001308007770884000008FF00023080074B
:102218007F0884000008F900840A0008FA003F29B2
:102228007A08F1007908F0000A30F2000030F30073
:102238000A168A1551220A168A1178087007F900B9
:102248000030031801307107FA0076088400013065
:102258008313800776088400000884000A168A1110
:102268000A200A168A11D03EF8000A307802031CA8
:102278003E293F2914297A08F7007908F600080052
:10228800F8007808031949294A295E29F31F4D29BE
:102298004E295E297009FA007109FB007209FC00D9
:1022A8007309FD00FA0A0319FB0A0319FC0A03194A
:1022B800FD0A66297308FD007208FC007108FB001E
:1022C8007008FA007308720471047004031D6D2904
:1022D8006E2977290030F3000030F2000030F10059
:1022E8000030F000F7299630F90085290130F90708
:1022F80001300310FD0CFC0CFB0CFA0CFF3E031D17
:102308007D29FE307D05031D8A298B297A29A52977
:102318000130F9070130FA07003003180130FB07D4
:10232800003003180130FC07003003180130FD07A6
:1023380001300310FD0CFC0CFB0CFA0CFF3E031DD6
:102348009D29FF307D05031DAA29AB298C29B729B2
:102358000130F9020130F4000310FA0DFB0DFC0DF9
:10236800FD0DF40BB029FC1BBA29BB29C129023089
:1023780079020318C029C129AC297918C429C529AB
:10238800CD29FF30FA05FF30FB057F30FC05FF3013
:10239800FD050310F90C7908F400F501F601F701C1
:1023A80018300310F40DF50DF60DF70DFF3E031D63
:1023B800D5297408FA047508FB047608FC04770824
:1023C800FD0478080319E929EA29EF29F31FED2903
:1023D800EE29EF29FD177D08F3007C08F2007B0841
:1023E800F1007A08F000080083160313C101831274
:1023F8000313530883160313C700831203135208E9
:1024080083160313C600831203135108831603139C
:10241800C50083120313500883160313C40047082A
:1024280083120313B8008316031346088312031399
:10243800B70083160313450883120313B6008316E7
:102448000313440883120313B5000030BC000030A6
:10245800BB000030BA000030B9000A168A15B82649
:102468000A168A110318392A3A2A552A013083167E
:102478000313C1004708F3004608F2004508F100BD
:102488004408F0000A168A155D210A168A11730895
:1024980083160313C7007208C6007108C5007008C8
:1024A800C40083160313C201C3016908B200680897
:1024B800B10041080319612A622A722A4108031DE2
:1024C800662A672A6C2A2B30A6000030A700702ADB
:1024D8002D30A6000030A7002608C1004708F300E9
:1024E8004608F2004508F1004408F0000A168A156B
:1024F800F1240A168A1170037104031D842A852A9F
:10250800CA2A83160313410803198B2A8C2A9C2A8A
:102518004108831203179000FF3083160313B10795
:102528000318B20AFF30B2070130C2000030C300FE
:102538004208103EF000C130F1000A168A15AC219D
:102548000A168A11FD3083160313B1070318B20A5D
:10255800FF30B207831203134E08A8004F08A900E2
:102568001030AA0083160313320883120313AC0039
:1025780083160313310883120313AB000A128A115E
:1025880003200A168A110A128A11E32F83160313ED
:102598004708F3004608F2004508F1004408F00037
:1025A8000A168A15F1240A168A1170087104031D87
:1025B800DE2AE12A0A128A114128831603134108E8
:1025C8000319E72AE82AF82A41088312031790001A
:1025D800FF3083160313B1070318B20AFF30B2079E
:1025E8000130C2000030C3004208103EF000C53080
:1025F800F1000A168A15AC210A168A11A62A831632
:102608000317350883120313CD0083160317340804
:1026180083120313CC0083160317330883120313A2
:10262800CB0083160317320883120313CA003D0830
:10263800CD003C08CC003B08CB003A08CA004A0849
:10264800BE004B08BF004C08C0004D08C100173041
:102658000310C10CC00CBF0CBE0CFF3E031D2C2B7D
:10266800FF303E05C20000303F05C3004208813EEE
:10267800C80043080318013EFF3EC9004908803AD4
:10268800FF0080307F02031D4B2B17304802031CCC
:102698004E2B4F2B502B112C83120313C91B552B78
:1026A800562BC62B480AFF00FF30BE00FF30BF0084
:1026B8007F30C0000030C100662B410DC10CC00C3A
:1026C800BF0CBE0CFF0B612B4108C7004008C600B9
:1026D8003F08C5003E08C40044084A05BE00450836
:1026E8004B05BF0046084C05C00047084D05C10012
:1026F800410840043F043E04031D832B842B852B93
:102708004F2B4A08BE004B08BF004C08C0004D08BC
:10271800C1001F300310C10CC00CBF0CBE0CFF3E23
:10272800031D8E2B410840043F043E0403199D2BD2
:102738009E2BB52B4408CA07450803110318013E10
:102748000319A72BCB07460803110318013E0319E9
:10275800AE2BCC07470803110318013E0319B52B0C
:10276800CD074409BE004509BF004609C000470916
:10277800C1003E08CA053F08CB054008CC05410802
:10278800CD05092C4A08BE004B08BF004C08C00004
:102798004D08C1001F300310C10CC00CBF0CBE0C8B
:1027A800FF3E031DCF2B410840043F043E04031D98
:1027B800DE2BDF2BE82B0030CD000030CC000030C2
:1027C800CB000030CA00092C4A08BE004B08BF00E5
:1027D8004C08C0004D08C10001300310BE0DBF0DEC
:1027E800C00DC10DFF3E031DF12B410840043F04FD
:1027F8003E040319002C012C092CBF30CD00803079
:10280800CC000030CB000030CA004D08BD004C0899
:10281800BC004B08BB004A08BA0008008312031327
:102828005B0884008313000884000A168A110A20B2
:102838000A168A11253A031D222C232C222D5B0807
:1028480084000130800783160313E801E901003092
:10285800EC00FF30EA00FF30EB00831203135B0843
:102868008400000884000A168A110A200A168A11B0
:102878002E3A031D402C412C542C5B088400013057
:1028880080075B08F6005C08F7000A168A11F12039
:102898000A168A11770883160313EB007608EA00F4
:1028A80083125B08840083130008E4006408840032
:1028B8000A168A110A200A168A11753A031D652C10
:1028C800662C922C5C0884000008FF000230800708
:1028D8007F0884000008DF00840A0008E0005B0825
:1028E80084006408013E8000872C5908AF005A080C
:1028F800B0006008B2005F08B1000A128A15032010
:102908000A168A113B2D640884000A168A110A20C7
:102918000A168A11753A0319792C922C5B088400DF
:102928000008E400640884000A168A110A200A16BE
:102938008A11E300A72C0130E407B22C6C30E300C5
:10294800B22CE301B22C63084C3A03199F2C2A3AA3
:102958000319A22C0A3A03199F2CA52C6408840099
:102968000A168A110A200A168A11663A031DBD2C16
:10297800BE2C1A2DE72C5C0884000008FF000430E8
:1029880080077F0884000008DF00840A0008E00050
:10299800840A0008E100840A0008E200EF2C5C08C1
:1029A80084000008FF00043080077F0884000008C6
:1029B800DF00840A0008E000840A0008E100840AB5
:1029C8000008E200EF2C63084C3A0319D32C203A94
:1029D8000319BF2CEF2C5B0884006408013E8000BB
:1029E8000F2D5908CE005A08CF006208D30061089D
:1029F800D2006008D1005F08D000640884000A167D
:102A08008A110A200A168A11D4000A168A11F82196
:102A18000A168A113B2D640884000A168A110A20B6
:102A28000A168A11663A0319F52C1A2D8312031314
:102A38005B0884000130831380073B2D5B0884000A
:102A4800000884000A168A110A200A168A11DD0075
:102A5800DE015D08F0005E08F1005908F2005A082E
:102A6800F3000A168A157E250A168A111A2D0800FF
:102A78007130F1008030F2000A168A1576220A16A3
:102A88008A11063083160313DF001330DE00AD30E1
:102A9800DD00DD0B4D2DDE0B4D2DDF0B4D2D2D30CB
:102AA800F1008030F2000A168A1576220A168A1179
:102AB800333083160313DF00BB30DE00DF30DD0068
:102AC800DD0B642DDE0B642DDF0B642D0130F1006E
:102AD8008030F2000A168A1576220A168A111530F5
:102AE80083160313DF004B30DE00BD30DD00DD0B45
:102AF8007B2DDE0B7B2DDF0B7B2D822D90308312FF
:102B08000313EA00BC30EB00831603135C0883123E
:102B18000313EF00831603135B0883120313EE00FD
:102B2800831603135A0883120313ED008316031345
:102B3800590883120313EC000A168A1514230A167F
:102B48008A114A30F0008030F1000A168A152D22C9
:102B58000A168A11700883160313DD007108DE0057
:102B68005F30F0008030F1000A168A152D220A160F
:102B78008A117008831603135D07DF0071080318B4
:102B8800710A5E07E000B330F0008030F1000A16E9
:102B98008A152D220A168A117008831603135F07F7
:102BA800E10071080318710A6007E2009030F00034
:102BB8000130F1000A168A152D220A168A117008AA
:102BC800831603136107E30071080318710A62078B
:102BD800E4004730F0008030F1000A168A152D22F3
:102BE8000A168A11700883160313630783160317DE
:102BF8009A0071080318710A831603136407831671
:102C080003179B00903083120313EA00C930EB00CE
:102C1800831603171B0883120313ED00831603178B
:102C28001A0883120313EC000A168A1514230A16CD
:102C38008A119B30F1008030F2000A168A1576223C
:102C48000A168A119030F1000130F2000A168A152E
:102C580076220A168A114730F1008030F2000A16EF
:102C68008A1576220A168A11063083160313DF00A6
:102C78001330DE00AD30DD00DD0B402EDE0B402EC4
:102C8800DF0B402E4A30F1008030F2000A168A1518
:102C980076220A168A115F30F1008030F2000A1697
:102CA8008A1576220A168A11B330F1008030F200B4
:102CB8000A168A1576220A168A119030F100013018
:102CC800F2000A168A1576220A168A114730F10090
:102CD8008030F2000A168A1576220A168A111030F8
:102CE80083160313DF003930DE000D30DD00DD0B05
:102CF8007B2EDE0B7B2EDF0B7B2E7F30F1008030AE
:102D0800F2000A168A1576220A168A1106308316E8
:102D18000313DF001330DE00AD30DD00DD0B922E33
:102D2800DE0B922EDF0B922E0800713083160313F0
:102D38008F000F309F00F83085008801223087000F
:102D48008312031385010A168A1579230A168A1134
:102D58000A168A1584210A168A110A168A15682104
:102D68000A168A11413083160313E500E50BBA2EC3
:102D7800BD2E0A168A15B1230A168A117108831600
:102D88000317AD007008AC00423083120313A30090
:102D98006830A2000030A1000030A000831603179D
:102DA8002C08F0002D08F100F201F30100300A169A
:102DB8008A1144210A168A11730883120313A70083
:102DC8007208A6007108A5007008A4000A128A15E6
:102DD80098200A168A1183120313230883160317EF
:102DE800B10083120313220883160317B00083125D
:102DF8000313210883160317AF0083120313200857
:102E080083160317AE000A168A1574210A168A114A
:102E1800823083160313E600DD30E500E50B122F40
:102E2800E60B122FF301F30A01300A168A159421D2
:102E38000A168A11831603172C082D04031D252F43
:102E4800262F302F8D30F3008030F4000A168A15B3
:102E58009C220A168A115C2F9C3083120313EA0005
:102E6800A730EB0083160317310883120313EF0012
:102E780083160317300883120313EE008316031713
:102E88002F0883120313ED00831603172E088312ED
:102E98000313EC000A168A1514230A168A119C30AB
:102EA800F3000130F4000A168A159C220A168A11CA
:102EB80083120313051185100510053083160313BB
:102EC800E500E50B652F682F413083120313B80026
:102ED8002030B7000030B6000030B5008316031765
:102EE800310883120313BC008316031730088312BA
:102EF8000313BB00831603172F0883120313BA00AA
:102F0800831603172E0883120313B9000A168A15AD
:102F1800B8260A168A11031C922F932F972F831213
:102F280003130514C92F413083120313B800F0307E
:102F3800B7000030B6000030B5008316031731081B
:102F480083120313BC00831603173008831203137C
:102F5800BB00831603172F0883120313BA008316C6
:102F680003172E0883120313B9000A168A15B82608
:102F78000A168A11031CC12FC22FC62F83120313EE
:102F88008514C92F831203130515053083160313FF
:102F9800E500E50BCD2FD02F8316031731088316D4
:102FA8000313DC0083160317300883160313DB00B2
:102FB800831603172F0883160313DA0083160317E3
:102FC8002E0883160313D9000A168A113C250A16FF
:102FD8008A11993083160313E7003130E600A130D7
:102FE800E500E50BF52FE60BF52FE70BF52FFC2F8A
:082FF800B12E0A128A11002813
:103286008312031388144729831203138810080036
:1032960064008001840A04060319003404064C29DC
:1032A600F000831203130C1E59295A295429700859
:1032B60099000800730872047104700403196429E4
:1032C600652967298030F306080083120313071463
:1032D6000630F000F00B6D2900008312031307106F
:1032E600080001300A168A155C270A168A15063068
:1032F600F4003030F300F30B7E29F40B7E29000036
:103306000800831603131811193099001812831236
:1033160003139817831603139816831203131816AC
:103326000800F4007403031999299A299F29C030CB
:10333600F5000030F600A3298030F5000030F600D5
:1033460075087307FF3E0A168A155C270A168A1542
:1033560008007008F2000130F107FF3071078400A1
:103366000A168A110A200A168A15FF007208F20A3E
:1033760084007F08831780000008031DC329C42921
:10338600AE2908007108F6007008F500D7297608FE
:10339600840083170008F4000130F60775088400DE
:1033A600740880000130F5070130F2020030031C7A
:1033B600F303F302720A031DE429730A031DE429C9
:1033C600E529CA290800831203136708E900F829CA
:1033D6006508D9006608DA006930DB006808DC0099
:1033E6000A168A1112240A168A158312031369080B
:1033F60084000A168A110A200A168A15003A031D45
:10340600052A062AEB29E501E60108008030831229
:103416000313B8063C08F3003B08F2003A08F10033
:103426003908F0003808F7003708F6003608F500C6
:103436003508F4000A128A1562220A168A157308DC
:1034460083120313B8007208B7007108B60070083B
:10345600B50008007008F2007108F300382A013040
:10346600F0070318F10A0030F107710883120313FD
:10347600FF00700884000A168A1100200A168A15B1
:10348600003A031D472A482A322A72087002F000C1
:103496007308031C730A7102F1000800F401F501B8
:1034A600701C562A572A5D2A7208F4070318F50A73
:1034B6007308F50701300310F20DF30DFF3E031DEF
:1034C6005E2A01300310F10CF00CFF3E031D652A45
:1034D60070087104031D702A712A532A7508F100B9
:1034E6007408F00008008B2A7208FF007108840037
:1034F6000A168A1100200A168A150A168A155321F9
:103506000A168A150130F1070318F20A0030F2078D
:10351600720883120313FF00710884000A168A11C9
:1035260000200A168A15003A031D9A2A9B2A772A32
:103536000800B12A7408FF00730884000A168A116D
:1035460000200A168A150A168A1518260A168A15DA
:103556000130F3070318F40A0030F40774088312E5
:103566000313FF00730884000A168A1100200A1646
:103576008A15003A031DC02AC12A9D2A0800F800B0
:10358600F401F5017008F200F3017208F600730801
:10359600F700781CCF2AD02AD62A7608F407031813
:1035A600F50A7708F50701300310F60DF70DFF3E13
:1035B600031DD72A0310F80C7808031DE32AE42A12
:1035C600CC2A7508F1007408F00008008312031372
:1035D600A601A701062B2508A300A4012308F000D5
:1035E6002408F1002108F2002208F3000A168A15C1
:1035F6007E250A168A15013083120313A6070318BF
:10360600A70A0030A70726082007A300230884007E
:1036160083170008A5002508031D122B132BEE2A7D
:1036260008006C3083160313CD00831203136A0857
:1036360083160313CE000130CF00D001D101D7018C
:10364600D801CE3083120313E5000030E6006B0884
:10365600E700CD30E8000A168A15E6210A168A1513
:10366600831603135008831203136A078316031382
:10367600CC004C0884008317800108007008710490
:103686000319462B472B742B0130F400532B0130C2
:103696000310F00DF10DFF3E031D4B2B0130F40717
:1036A600F11F562B572B4A2B71087302031D5D2BF6
:1036B60070087202031C602B612B672B7008F202E4
:1036C6007108031CF303F30201300310F10CF00C34
:1036D600FF3E031D682B0130F402031D732B742B70
:1036E600572B7308F1007208F000080083160313C5
:1036F600880183120313881008103430F400F13067
:10370600F300F30B842BF40B842B892B02300A165F
:103716008A155C270A168A1528300A168A155C2728
:103726000A168A150C300A168A155C270A168A1597
:1037360006300A168A155C270A168A1501300A16FB
:103746008A155C270A168A150630F4003030F30015
:10375600F30BAB2BF40BAB2B00000800F401F501C7
:10376600831203138718B82BB92BC92B7508F300DE
:103776007408F200F40A0319F50A75307302303042
:1037860003197202031CC82BC92BB32B75307502A3
:10379600303003197402031CD12BD22BD52BF00128
:1037A600F101EC2B8E018F01103090001014871C54
:1037B600DD2BDE2BE72B75300F02303003190E029E
:1037C600031CE62BE72BDA2B10100F08F1000E086E
:1037D600F0000800F401F501700871040319F42BD8
:1037E600F52B2A2C0130F600012C01300310F00DC8
:1037F600F10DFF3E031DF92B0130F607F11F042CD6
:10380600052CF82B01300310F40DF50DFF3E031DBA
:10381600062C71087302031D122C70087202031C19
:10382600152C162C1D2C7008F2027108031CF303CC
:10383600F302741401300310F10CF00CFF3E031D6B
:103846001E2C0130F602031D292C2A2C052C750886
:10385600F1007408F000080000307005F800003030
:103866007105F90080307205FA007F307305FB00A0
:103876007B087A0479047804031D422C432C4B2CD4
:103886000030F3000030F2000030F1000030F000AC
:1038960000307405F80000307505F90080307605B3
:1038A600FA007F307705FB007B087A0479047804F8
:1038B600031D5E2C5F2C672C0030F7000030F600ED
:1038C6000030F5000030F40077087306031D752CF0
:1038D60076087206031D752C75087106031D752C76
:1038E600740870060319782C792C7B2C03107C2C19
:1038F600031408000310720D730DF9007908031DF7
:10390600852C862C8F2C0030F3000030F20000301E
:10391600F1000030F000F02C7008F4007108F5009A
:103926007208F6007308F7001F300310F70CF60C48
:10393600F50CF40CFF3E031D982C7408F800F217E2
:10394600FF30F005FF30F105FF30F2050030F305DA
:103956009630F902F91FB02CB12CC92C7908803A9F
:10396600973E0318B72CB82CB92C862C01300310BF
:10397600F30CF20CF10CF00CFF3E031DBA2C0130D7
:10398600F907031DC72CC82CB92CE02C203079026E
:10399600031CCE2CCF2CDB2C862C0130F40003101C
:1039A600F00DF10DF20DF30DF40BD22C0130F902EE
:1039B6007908031DDF2CE02CD02C78080319E42CA1
:1039C600E52CF02CF009F109F209F309F00A0319C4
:1039D600F10A0319F20A0319F30A080083160317FA
:1039E600390883120313A5008316031738088312B8
:1039F6000313A40083160317370883120313A300C7
:103A060083160317360883120313A2007308A50052
:103A16007208A4007108A3007008A2002208F4002E
:103A26002308F5002408F6002508F70017300310D0
:103A3600F70CF60CF50CF40CFF3E031D1A2DFF30A7
:103A46007405A00000307505A10020082104031D9F
:103A56002D2D2E2D512D2208F4002308F5002408C3
:103A6600F6002508F70001300310F40DF50DF60DEC
:103A7600F70DFF3E031D372D770876047504740491
:103A8600031D462D472D4C2D0230F0000030F1006D
:103A96007D2D0330F0000030F1007D2D200A210439
:103AA600031D562D572D792D2208F4002308F50005
:103AB6002408F6002508F70009300310F40DF50D6B
:103AC600F60DF70DFF3E031D602D7708760475048D
:103AD600740403196F2D712D0130722D0030F8001A
:103AE600F9017808F0007908F1007D2D0430F00026
:103AF6000030F1000800720873040319832D842D29
:103B06008A2D72087304031D892D8A2D912D700844
:103B16000A128A1502200A168A15172E7208093EFD
:103B2600F40073080318013E003EF5007408840093
:103B36008317751C83130008F600840A0008F70033
:103B4600760877040319A82DA92DDB2D7208093EE6
:103B5600F40073080318013E003EF5007408840063
:103B66008317751C83130008F600840A0008F70003
:103B76007208023EF80073080318013E003EF90081
:103B8600780884008317791C83130008FA00840AD6
:103B96000008FB007B08803AFC007708803A7C022C
:103BA600031DD72D76087A020318DA2DDB2D172E82
:103BB600720884008317731C83130008F400840AB8
:103BC6000008F5007208023EF60073080318013E6D
:103BD600003EF700760884008317771C83130008DD
:103BE6007407F9007508F8000318F80A801FFC2D01
:103BF600F8037808FA007908840083177A1C83137F
:103C0600700880007208023EF40073080318013E33
:103C1600003EF500740884008317751C8313013079
:103C26008007840A0318800A0800F200831203132F
:103C360008147208F00004300310F00CFF3E031D58
:103C46001F2E7018272E2B2E8312031308152E2EC7
:103C56008312031308117208F00005300310F00CEC
:103C6600FF3E031D312E7018392E3D2E831203138D
:103C76008815402E8312031388117208F00006304F
:103C86000310F00CFF3E031D432E70184B2E4F2ED3
:103C9600831203130816522E831203130812720896
:103CA600F00007300310F00CFF3E031D552E701870
:103CB6005D2E612E831203138816642E831203135E
:103CC60088120A168A1543210A168A1572186C2E4E
:103CD600702E831203130815732E83120313081113
:103CE6007208F00001300310F00CFF3E031D762E23
:103CF60070187E2E822E831203138815852E83124A
:103D0600031388117208F00002300310F00CFF3E16
:103D1600031D882E7018902E942E831203130816F6
:103D2600972E8312031308127208F0000330031053
:103D3600F00CFF3E031D9A2E7018A22EA62E83129B
:103D460003138816A92E8312031388120A168A15DE
:103D560043210A168A150630F1003030F000F00BC8
:103D6600B22EF10BB22E00000800003083120313AE
:103D76003505BD0000303605BE0080303705BF0072
:103D86007F303805C00040083F043E043D04031D53
:103D9600CD2ECE2ED62E0030B8000030B700003023
:103DA600B6000030B50000303905BD0000303A05D8
:103DB600BE0080303B05BF007F303C05C000400898
:103DC6003F043E043D04031DE92EEA2EF22E003088
:103DD600BC000030BB000030BA000030B900B81F8C
:103DE600F52EF62E1A2F0030BD000030BE00003032
:103DF600BF008030C0003508BD023608031C360FF0
:103E0600052F062FBE023708031C370F0B2F0C2F6A
:103E1600BF023808031C380F112F122FC0024008AA
:103E2600B8003F08B7003E08B6003D08B500BC1F05
:103E36001D2F1E2F422F0030BD000030BE00003067
:103E4600BF008030C0003908BD023A08031C3A0F93
:103E56002D2F2E2FBE023B08031C3B0F332F342F72
:103E6600BF023C08031C3C0F392F3A2FC002400802
:103E7600BC003F08BB003E08BA003D08B9008030D0
:103E8600B8068030BC063C083802031D542F3B0898
:103E96003702031D542F3A083602031D542F3908E2
:103EA60035020318572F582F5A2F03105B2F031470
:103EB6000800F2008312031308107208F0000430A1
:103EC6000310F00CFF3E031D632F70186B2F6F2F2E
:103ED600831203130815722F831203130811720835
:103EE600F00005300310F00CFF3E031D752F70180F
:103EF6007D2F812F831203138815842F83120313BA
:103F060088117208F00006300310F00CFF3E031D06
:103F1600872F70188F2F932F831203130816962F4F
:103F26008312031308127208F00007300310F00C16
:103F3600FF3E031D992F7018A12FA52F831203137F
:103F46008816A82F8312031388120A168A1543218E
:103F56000A168A158530F000F00BAF2F7218B42FB1
:103F6600B82F831203130815BB2F831203130811EE
:103F76007208F00001300310F00CFF3E031DBE2F47
:103F86007018C62FCA2F831203138815CD2F8312DC
:103F9600031388117208F00002300310F00CFF3E84
:103FA600031DD02F7018D82FDC2F83120313081689
:103FB600DF2F8312031308127208F0000330031078
:103FC600F00CFF3E031DE22F7018EA2FEE2F83122E
:103FD60003138816F12F8312031388120A168A1503
:103FE60043210A168A150630F1003030F000F00B36
:0A3FF600FA2FF10BFA2F000008006B
:04400E00D420FF3F7C
:00000001FF
