:060000000A128A11EA2F2A
:10001000080083120313AC1F0E280F281128AB0110
:10002000AC01AD01AE012B282030F0000030F10012
:10003000831203132808F2002908F3000A168A1114
:10004000CF200A128A11013083120313AD0703185F
:10005000AE0A0030AE072E08803AFD002C08803A28
:100060007D02031D35282B082D02031C3828392852
:100070001428831203132A08A0002808A1002908C5
:10008000A2000A168A15E6260A128A1108003F30D5
:1000900083160313CB008030CA000030C900003043
:1000A000C800AF01B0014708F3004608F200450858
:1000B000F1004408F0000030F7000030F600003096
:1000C000F5000030F4000A168A15B2270A128A11C8
:1000D00003186B286C289B2A7D2883160313360887
:1000E000CB003508CA003408C9003308C800013005
:1000F000AF070318B00A0030B00741308312031372
:10010000A3002030A2000030A1000030A000831620
:1001100003134B0883120313A700831603134A0823
:1001200083120313A60083160313490883120313D3
:10013000A50083160313480883120313A4000A12B0
:100140008A15BE240A128A11831203132308831608
:100150000313B60083120313220883160313B5009A
:1001600083120313210883160313B40083120313AD
:10017000200883160313B300440883120313D50029
:1001800083160313450883120313D6008316031343
:10019000460883120313D7008316031347088312FC
:1001A0000313D80083160313330883120313D502F5
:1001B000831603133408031C340FDF28E22883124C
:1001C0000313D602831603133508031C350FE928E1
:1001D000EC2883120313D702831603133608031C7B
:1001E000360FF328F62883120313D802831603135D
:1001F000831203135808F3005708F2005608F10061
:100200005508F0000A168A15C0250A128A11F31B38
:1002100019297308031D1A297208031D1A29710868
:10022000031D1A2902307002031D1629031C192907
:100230001A296D2883160313360883120313B80096
:1002400083160313350883120313B70083160313B1
:10025000340883120313B600831603133308831282
:100260000313B50083160313470883120313BC005E
:1002700083160313460883120313BB00831603136C
:10028000450883120313BA0083160313440883122C
:100290000313B9000A168A11AD220A128A11031C2F
:1002A000522953296D28831603134408831203131C
:1002B000D50083160313450883120313D600831653
:1002C0000313460883120313D7008316031347084A
:1002D00083120313D80083160313480883120313F1
:1002E000D502831603134908031C490F78297B297B
:1002F00083120313D602831603134A08031C4A0F02
:100300008229852983120313D702831603134B080E
:10031000031C4B0F8C298F2983120313D8028316D9
:100320000313831203135808F3005708F20056080A
:10033000F1005508F0000A168A15C0250A128A1124
:10034000F31BB3297308031DB2297208031DB229D8
:100350007108031DB22902307002031DAF29031872
:10036000B229B329622A831603134B08C7004A082F
:10037000C6004908C5004808C4009B2A41308312C2
:100380000313A3002030A2000030A1000030A00021
:10039000831603134B0883120313A700831603135A
:1003A0004A0883120313A600831603134908831215
:1003B0000313A50083160313480883120313A40034
:1003C0000A128A1598200A128A118312031323082D
:1003D00083160313CB00831203132208831603131F
:1003E000CA0083120313210883160313C900831262
:1003F0000313200883160313C800FF30AF07031848
:10040000B00AFF30B007440883120313D5008316E7
:100410000313450883120313D600831603134608FB
:1004200083120313D70083160313470883120313A1
:10043000D80083160313480883120313D5028316CA
:1004400003134908031C490F262A292A8312031380
:10045000D602831603134A08031C4A0F302A332A94
:1004600083120313D702831603134B08031C4B0F8D
:100470003A2A3D2A83120313D802831603138312E8
:1004800003135808F3005708F2005608F100550806
:10049000F0000A168A15C0250A128A11F31B612A78
:1004A0007308031D602A7208031D602A7108031D6A
:1004B000602A02307002031D5D2A0318602A612A37
:1004C000622AB32983160313470883120313B80063
:1004D00083160313460883120313B700831603130E
:1004E000450883120313B6008316031344088312CE
:1004F0000313B500831603134B0883120313BC00C8
:10050000831603134A0883120313BB0083160313D5
:10051000490883120313BA00831603134808831291
:100520000313B9000A168A11AD220A128A11031C9C
:100530009A2A9B2ABE298312031354088316031395
:10054000A9002908AA00E71BA62AA72AAC2A67083F
:10055000A3006608A200B02A0630A2000030A30063
:100560002308AE002208AD000130AD070318AE0A23
:100570000030AE0766302A06031DBF2AC02ADA2AD9
:10058000B01FC32AC42ACE2A3F30CB008030CA0015
:100590000030C9000030C800AF01B0016730290643
:1005A0000319D32AD42ADA2A2F08AD070318AE0A72
:1005B0003008AE07B701B8014708BC004608BB00C9
:1005C0004508BA004408B9004B08B6004A08B5000F
:1005D0004908B4004808B300132C831603134B08D2
:1005E00083120313A300831603134A088312031311
:1005F000A20083160313490883120313A100831674
:100600000313480883120313A000831603133C0846
:1006100083120313A700831603133B0883120313EB
:10062000A600831603133A0883120313A50083164A
:100630000313390883120313A4000A128A159820A1
:100640000A128A11831203132308BD002208BC007A
:100650002108BB002008BA000A168A11F1260A12E6
:100660008A11831203133D0883160313C0008312FB
:1006700003133C0883160313BF00831203133B08C4
:1006800083160313BE00831203133A088316031361
:10069000BD004008F3003F08F2003E08F1003D08AD
:1006A000F0000A168A115B200A128A11710883165B
:1006B0000313AC007008AB004B0883120313A700B0
:1006C000831603134A0883120313A6008316031329
:1006D000490883120313A5008316031348088312E5
:1006E0000313A40083160313400883120313A3000B
:1006F000831603133F0883120313A2008316031308
:100700003E0883120313A100831603133D088312CE
:100710000313A0000A128A15BE240A128A1183123A
:1007200003132308B8002208B7002108B6002008E8
:10073000B500831603133C0883120313BC00831611
:1007400003133B0883120313BB00831603133A08F9
:1007500083120313BA008316031339088312031399
:10076000B9000A168A1550260A128A118312031339
:10077000380883160313BC0083120313370883164B
:100780000313BB0083120313360883160313BA0046
:1007900083120313350883160313B9004130831203
:1007A0000313A3002030A2000030A1000030A000FD
:1007B000831603134B0883120313A7008316031336
:1007C0004A0883120313A6008316031349088312F1
:1007D0000313A50083160313480883120313A40010
:1007E0000A128A1598200A128A1183120313230809
:1007F00083160313CB0083120313220883160313FB
:10080000CA0083120313210883160313C90083123D
:100810000313200883160313C8000130B707031819
:10082000B80A0030B8073808803A83120313D5009D
:10083000831603132E08803A831203135502031DF7
:10084000252C831603132D083702031C282C292C72
:10085000ED2A403083120313A300A030A200003021
:10086000A1000030A000831603134B08831203136A
:10087000A700831603134A0883120313A6008316E6
:100880000313490883120313A500831603134808B2
:1008900083120313A4000A128A15BE240A128A11B5
:1008A00083120313230883160313C0008312031358
:1008B000220883160313BF00831203132108831633
:1008C0000313BE0083120313200883160313BD0015
:1008D0003C0883120313B800831603133B088312EA
:1008E0000313B700831603133A0883120313B600E9
:1008F00083160313390883120313B50083160313F9
:10090000400883120313BC00831603133F088312AD
:100910000313BB00831603133E0883120313BA00AC
:10092000831603133D0883120313B9000A168A11B4
:10093000AD220A128A1103189E2C9F2CAA2C00307B
:1009400083160313C0000030BF000030BE0000302B
:10095000BD00D32C831603133C08F3003B08F200C0
:100960003A08F1003908F0004008F7003F08F600A7
:100970003E08F5003D08F4000A168A15B2270A124F
:100980008A11031CC42CC52CD32C831603132B18DB
:10099000CA2CCB2CD32C0030C0000030BF0000305C
:1009A000BE000030BD00831603134008F3003F086B
:1009B000F2003E08F1003D08F0004708F700460845
:1009C000F6004508F5004408F4000A128A15622270
:1009D0000A128A11730883160313BC007208BB0045
:1009E0007108BA007008B9003C0883120313B800FC
:1009F000831603133B0883120313B70083160313F4
:100A00003A0883120313B6008316031339088312BE
:100A10000313B5004130A3002030A2000030A10034
:100A20000030A00083160313360883120313A700B7
:100A300083160313350883120313A60083160313CA
:100A4000340883120313A50083160313330883129B
:100A50000313A4000A128A15BE240A128A118312F3
:100A600003132308BC002208BB002108BA00200899
:100A7000B9000A168A11AD220A128A11031C412DEF
:100A8000422D952D013083160313AF070318B00ACA
:100A90000030B007413083120313A3002030A200BE
:100AA0000030A1000030A000831603133608831223
:100AB0000313A70083160313350883120313A6003C
:100AC00083160313340883120313A500831603133C
:100AD000330883120313A4000A128A15BE240A12D3
:100AE0008A1183120313230883160313B60083129B
:100AF0000313220883160313B5008312031321087E
:100B000083160313B4008312031320088316031300
:100B1000B30066302A06031D8E2D8F2D952D0130D2
:100B2000AD070318AE0A0030AE078316031336086C
:100B3000CB003508CA003408C9003308C8003008A3
:100B4000A1002F08A000A801A401A501B701B801C8
:100B5000472F831603134B0883120313A300831636
:100B600003134A0883120313A200831603134908D0
:100B700083120313A100831603134808831203137F
:100B8000A000831603133C0883120313A7008316E7
:100B900003133B0883120313A600831603133A08BA
:100BA00083120313A500831603133908831203135A
:100BB000A4000A128A1598200A128A1183120313BC
:100BC0002308BD002208BC002108BB002008BA0091
:100BD0000A168A11F1260A128A11831203133D089C
:100BE00083160313C000831203133C0883160313F8
:100BF000BF00831203133B0883160313BE00831246
:100C000003133A0883160313BD004008F3003F089E
:100C1000F2003E08F1003D08F0000A168A115B2040
:100C20000A128A117108803AFF0080307F02031D8A
:100C30001B2E0A30700203181E2E1F2E352E83160F
:100C400003134008F3003F08F2003E08F1003D089E
:100C5000F0000A168A115B200A128A1171088316A5
:100C60000313AC007008AB003B2E0930831603134E
:100C7000AB000030AC002808031D3F2E402E712E23
:100C8000A11F432E442E712E4208103E84002E30A8
:100C9000831780000130C2070318C30A0030C3075E
:100CA000FF30B1070318B20AFF30B2070130A800C5
:100CB000712E4208103E84003030831780000130CE
:100CC000C2070318C30A0030C307FF30B107031877
:100CD000B20AFF30B207FF30A4070318A50AFF309D
:100CE000A50724082504031D762E772E592E4208C9
:100CF000103E84002B08303E831780000130C2076D
:100D00000318C30A0030C307FF30B1070318B20A43
:100D1000FF30B2074B0883120313A7008316031397
:100D20004A0883120313A60083160313490883128B
:100D30000313A50083160313480883120313A400AA
:100D400083160313400883120313A30083160313AF
:100D50003F0883120313A200831603133E08831275
:100D60000313A100831603133D0883120313A0008D
:100D70000A128A15BE240A128A1183120313230849
:100D8000B8002208B7002108B6002008B500831675
:100D900003133C0883120313BC00831603133B08A0
:100DA00083120313BB00831603133A088312031341
:100DB000BA0083160313390883120313B9000A1605
:100DC0008A1550260A128A118312031338088316D3
:100DD0000313BC0083120313370883160313BB00ED
:100DE00083120313360883160313BA008312031306
:100DF000350883160313B900413083120313A3008F
:100E00002030A2000030A1000030A00083160313A0
:100E10004B0883120313A700831603134A08831297
:100E20000313A60083160313490883120313A500B6
:100E300083160313480883120313A4000A128A15A9
:100E400098200A128A1183120313230883160313AE
:100E5000CB0083120313220883160313CA008312E4
:100E60000313210883160313C900831203132008F8
:100E700083160313C800FF30A0070318A10AFF3030
:100E8000A1070130B7070318B80A0030B8073808BF
:100E9000803A83120313D500831603132E08803A79
:100EA000831203135502031D592F831603132D08B4
:100EB000370203185C2F5D2F6C2F83160313430832
:100EC000803AFF0080307F02031D682F4B304202C2
:100ED000031C6B2F6C2FA92D4F3083160313B70003
:100EE0000030B8003708103E8400831780011030AE
:100EF00083120313D50083160313420883120313CE
:100F0000D502831603133708831203135507F00025
:100F10001030F100831603134308F3004208F20077
:100F20000A168A150C260A128A1183160313420820
:100F30003702C2004308031C430A3802C3004108B9
:100F4000031DA32FA52F0130A62F003083120313FA
:100F5000D500D601550883160313B7008312031377
:100F6000560883160313B80041080319B82FB92F88
:100F7000C52FFF30C2070318C30AFF30C30742085A
:100F8000103E84004108831780003708B1023808FA
:100F9000031CB203B202831203134E08A8004F08C9
:100FA000A900831603134208103E83120313AA00FC
:100FB00083160313320883120313AC008316031342
:100FC000310883120313AB000A128A1109200A1296
:100FD0008A1108008313DC308400E9300A168A1174
:100FE00000200A128A1183171030840060300A161C
:100FF0008A1100200A128A1183010A168A11F32C21
:1010000073087204710470040319072808280A2859
:101010008030F3060800831603136308831203135A
:10102000A50083160313620883120313A40083161A
:101030000313610883120313A300831603136008CC
:1010400083120313A2007308A5007208A40071089C
:10105000A3007008A2002208F4002308F500240869
:10106000F6002508F70017300310F70CF60CF50C06
:10107000F40CFF3E031D3428FF307405A00000303F
:101080007505A10020082104031D472848286B2866
:101090002208F4002308F5002408F6002508F700CC
:1010A00001300310F40DF50DF60DF70DFF3E031D95
:1010B00051287708760475047404031D602861289C
:1010C00066280230F0000030F10097280330F0006D
:1010D0000030F1009728200A2104031D7028712890
:1010E00093282208F4002308F5002408F6002508B8
:1010F000F70009300310F40DF50DF60DF70DFF3E66
:10110000031D7A2877087604750474040319892866
:101110008B2801308C280030F800F9017808F000A5
:101120007908F10097280430F0000030F100080041
:10113000831203132708B1008030B1052708A800E7
:101140002807B800A61FA528A628A72838143808FD
:101150000319AB28AC28BC28380A031DB028B128D5
:10116000B9280030A7000030A6000030A5000030EC
:10117000A400A617A701C4280030A7000030A600CD
:101180000030A5000030A40023088039B1062308F0
:10119000A8002807B900A21FCE28CF28D0283914CC
:1011A00039080319D428D528E528390A031DD92878
:1011B000DA28E2280030A3000030A2000030A100AD
:1011C0000030A000A217A301ED280030A3000030DA
:1011D000A2000030A1000030A00023082204210456
:1011E0002004031DF428F5280C290030A700003046
:1011F000A6000030A5000030A4008030A6047F3097
:10120000A7043108A7042708A3002608A200250880
:10121000A1002408A000612A3808031D1029112903
:101220001A290030A3000030A2000030A1000030D5
:10123000A000612A3808A800A9012908AB003908D4
:101240002802AA00031CAB032A087F3EB2002B0829
:101250000318013E003EB3002708B0002608AF0087
:101260002508AE002408AD000030A7000030A6001D
:101270000030A5000030A4000030B7000030B600F8
:101280000030B5000030B400B9018E2939080319C7
:101290004A294B296B290130A8000310AD0DAE0D72
:1012A000AF0DB00DA80B4D290130A8000310A40DFF
:1012B000A50DA60DA70DA80B5629B71F60296129FA
:1012C000622924140130A8000310B40DB50DB60D29
:1012D000B70DA80B642923083002031D79292208C1
:1012E0002F02031D792921082E02031D79292008C8
:1012F0002D02031C7C297D298C2937172008AD027B
:101300002108031C210FAE022208031C220FAF028A
:101310002308031C230FB0020130B9071A30390229
:10132000031C93299429462930082F042E042D04E8
:1013300003199B299C29BB293414BB290130A8001F
:101340000310A40DA50DA60DA70DA80BA029B71F6E
:10135000AA29AB29AC2924140130A8000310B40D2C
:10136000B50DB60DB70DA80BAE29FF30B2070318A7
:10137000B30AFF30B307A61FBE29BF299E29B901B2
:10138000B71FC329C429E029FF303405A800FF3066
:101390003505A900FF303605AA007F303705AB00C0
:1013A0002B082A04290428040319D729D829DB2962
:1013B0000130B900E029241CDE29DF29E029D829E1
:1013C00039080319E429E529162A0130A407003059
:1013D00003180130A507003003180130A6070030BC
:1013E00003180130A707271CF629F729162A240815
:1013F000A8002508A9002608AA002708AB0001308C
:10140000AC002B0DAB0CAA0CA90CA80CAC0B012A40
:101410002B08A7002A08A6002908A5002808A40070
:101420000130B2070318B30A0030B3073308803A1B
:10143000FF0080307F02031D1F2AFF303202031C91
:10144000222A232A312AFF3083120313B2000030EC
:10145000B3000030A7000030A6000030A500003027
:10146000A400831203133308803AFF0080307F0208
:10147000031D3C2A0130320203183F2A402A4D2A1C
:1014800083120313B201B3010030A7000030A6009D
:101490000030A5000030A400B1018312031332080C
:1014A000B800381C542A552A572AA617592A7F30C3
:1014B000A6053808A8000310280CA7003108A704C7
:1014C000032908007308F8008030F80573088312B8
:1014D0000313A0002007FA00F21F6F2A702A712A56
:1014E0007A147A080319752A762A862A7A0A031D3D
:1014F0007A2A7B2A832A0030F3000030F200003081
:10150000F1000030F000F217F3018E2A0030F300F2
:101510000030F2000030F1000030F0007708F900F0
:101520008030F905790878060319972A982A992AAC
:1015300078177708A0002007F900F61FA02AA12A33
:10154000A22A791479080319A62AA72AB72A790AA0
:10155000031DAB2AAC2AB42A0030F7000030F60095
:101560000030F5000030F400F617F701BF2A003014
:10157000F7000030F6000030F5000030F4007A0883
:1015800079020318C42AC52AE92A781FC82AC92A59
:10159000CB2A8030F8067A08FB007908FA007B082D
:1015A000F9007008FB007408F0007B08F400710873
:1015B000FB007508F1007B08F5007208FB00760857
:1015C000F2007B08F6007308FB007708F3007B0845
:1015D000F700FB017908A000A1012108A3007A0807
:1015E0002002A200031CA3032308803AFF008030DE
:1015F0007F02031DFD2A1A302202031C002B012B3F
:10160000382B7308720471047004031D082B0A2B15
:1016100001300B2B0030FB000030F3000030F200F3
:101620000030F1000030F0007908FA003E2B7B1CFE
:101630001A2B1B2B242B7B0883120313A0000310EF
:10164000200C0138FB00262B0310FB0C701C292BEF
:101650002A2B2B2BFB17013083120313A000730DD1
:10166000F30CF20CF10CF00CA00B2F2B0130FA074D
:1016700079087A02031C3D2B3E2B172B781B412B3C
:10168000422B8D2B7A08031D462B472B502B003005
:10169000F3000030F2000030F1000030F000BD2C0B
:1016A0007408F007750803110318013E0319592B3C
:1016B000F107760803110318013E0319602BF207A6
:1016C000770803110318013E0319672BF307731CF6
:1016D0006A2B6B2B452C7B1C6E2B6F2B782B7B087E
:1016E00083120313A0000310200C0138FB007A2B97
:1016F0000310FB0C701C7D2B7E2B7F2BFB17013006
:1017000083120313A000730DF30CF20CF10CF00C18
:10171000A00B832B0130FA07452C7308803AFF0099
:101720007708803A7F02031D9F2B76087202031D03
:101730009F2B75087102031D9F2B740870020318FC
:10174000A22BA32BFC2BFF3083120313A000FF302E
:10175000A100FF30A200FF30A3007408A4007508A8
:10176000A5007608A6007708A7007008A4027108F3
:10177000031C710FBC2BBD2BA5027208031C720F3A
:10178000C22BC32BA6027308031C730FC82BC92BD3
:10179000A7022408A00725080318250FD02BD12B5A
:1017A000A10726080318260FD62BD72BA207270838
:1017B0000318270AA3072308F3002208F2002108D0
:1017C000F1002008F0008030F8067B03FF3AFB00B0
:1017D0007B08031DEC2BED2B0A2C0130F0070030A9
:1017E00003180130F107003003180130F207003010
:1017F00003180130F3070A2C7408F0027508031C63
:10180000750FF1027608031C760FF2027708031CAD
:10181000770FF3027308720471047004031D112C16
:10182000122C412C7B08031D162C172C412C003048
:10183000F3000030F2000030F1000030F000BD2C69
:10184000013083120313A0000310F00DF10DF20D0F
:10185000F30DA00B242CFB1F2E2C2F2C302C7014DE
:101860007B1C332C342C382C03147B0DFB003A2CBE
:101870000310FB0D7A0803193E2C3F2C412C01303C
:10188000FA02F21F442C452C202CF901FB1F492C95
:101890004A2C582C7B087F3903194F2C502C532C81
:1018A0000130F900582C701C562C572C582C502CF9
:1018B000790803195C2C5D2C912C0130F007003065
:1018C00003180130F107003003180130F20700302F
:1018D00003180130F307731C6E2C6F2C912C7008C9
:1018E00083120313A0007108A1007208A2007308FC
:1018F000A3000130A400230DA30CA20CA10CA00C8A
:10190000A40B7B2C2308F3002208F2002108F1002D
:101910002008F0007A0A03198E2C8F2C912C0130AC
:10192000FA077A0A0319952C962C9B2C7A08031D2A
:101930009A2C9B2CA92C0030F3000030F2000030D0
:10194000F1000030F0007A08031DA72CA82CA92C68
:10195000F8017A1CAC2CAD2CAF2CF217B12C7F30D7
:10196000F2057A0883120313A0000310200CF30081
:10197000F81FBB2CBC2CBD2CF317080083120313DB
:101980002308A8008030A8052308F9007907AE00D5
:10199000A21FCB2CCC2CCD2C2E142E080319D12C0D
:1019A000D22CE12C2E0A031DD62CD72CDF2C003094
:1019B000A3000030A2000030A1000030A000A21758
:1019C000E92C0030A3000030A2000030A10000305C
:1019D000A00027088039A8062708F9007907AD007C
:1019E000A61FF32CF42CF52C2D142D080319F92C1B
:1019F000FA2C092D2D0A031DFE2CFF2C072D00307B
:101A0000A7000030A6000030A5000030A400A617F3
:101A1000112D0030A7000030A6000030A5000030D6
:101A2000A4002D080319152D162D1B2D2E08031D9E
:101A30001A2D1B2D242D0030A3000030A2000030F1
:101A4000A1000030A000FF2F2008F00026080A1691
:101A50008A15BF260A128A15710883120313B4006F
:101A60007008B3003308F900FA01FB01FC017C089F
:101A7000AC007B08AB007A08AA007908A9003408FA
:101A8000F900FA01FB01FC017C08B2007B08B100FF
:101A90007A08B0007908AF002108F00025080A167E
:101AA0008A15BF260A128A15710883120313B4001F
:101AB0007008B3003308F900FA01FB01FC01790852
:101AC000A9077A0803110318013E0319682DAA0714
:101AD0007B0803110318013E03196F2DAB077C0827
:101AE00003110318013E0319762DAC073408F900E1
:101AF000FA01FB01FC017908AF077A08031103180A
:101B0000013E0319842DB0077B0803110318013E21
:101B100003198B2DB1077C0803110318013E03192B
:101B2000922DB2072208F00024080A168A15BF2653
:101B30000A128A15710883120313B4007008B300E7
:101B40003308F900FA01FB01FC017908A9077A08BA
:101B500003110318013E0319AE2DAA077B080311D8
:101B60000318013E0319B52DAB077C0803110318B8
:101B7000013E0319BC2DAC073408F900FA01FB0142
:101B8000FC017908AF077A0803110318013E031915
:101B9000CA2DB0077B0803110318013E0319D12D8C
:101BA000B1077C0803110318013E0319D82DB207B1
:101BB0000830F9000310A90DAA0DAB0DAC0DF90BFF
:101BC000DA2D2108F00024080A168A15BF260A1209
:101BD0008A15710883120313B4007008B300330828
:101BE000F9003408FA00FB01FC017908A9077A081A
:101BF00003110318013E0319FE2DAA077B080311E8
:101C00000318013E0319052EAB077C0803110318C6
:101C1000013E03190C2EAC072008F00025080A1617
:101C20008A15BF260A128A15710883120313B4009D
:101C30007008B3003308F9003408FA00FB01FC0116
:101C40007908A9077A0803110318013E0319292E00
:101C5000AA077B0803110318013E0319302EAB07B6
:101C60007C0803110318013E0319372EAC07083016
:101C7000F9000310A90DAA0DAB0DAC0DF90B392E0F
:101C80002008F00024080A168A15BF260A128A15B1
:101C9000710883120313B4007008B3003308F9000D
:101CA0003408FA00FB01FC017908A9077A0803113E
:101CB0000318013E03195D2EAA077B0803110318C0
:101CC000013E0319642EAB077C0803110318013E83
:101CD00003196B2EAC072108F00026080A168A1596
:101CE000BF260A128A15710883120313B400700804
:101CF000B3003308F9003408FA00FB01FC0179084D
:101D0000AF077A0803110318013E0319882EB007A4
:101D10007B0803110318013E03198F2EB1077C08BD
:101D200003110318013E0319962EB2072208F00092
:101D300025080A168A15BF260A128A157108831209
:101D40000313B4007008B3003308F9003408FA0034
:101D5000FB01FC017908AF077A0803110318013E63
:101D60000319B32EB0077B0803110318013E0319B2
:101D7000BA2EB1077C0803110318013E0319C12EC6
:101D8000B2072208F00026080A168A15BF260A1292
:101D90008A15710883120313B4007008B300330866
:101DA000F9003408FA00FB01FC0108300310F90DBA
:101DB000FA0DFB0DFC0DFF3E031DD62E7908AF0773
:101DC0007A0803110318013E0319E72EB0077B08B8
:101DD00003110318013E0319EE2EB1077C0803110D
:101DE0000318013E0319F52EB2072908F9002A0845
:101DF000FA002B08FB002C08FC0018300310FC0C28
:101E0000FB0CFA0CF90CFF3E031DFE2E7908AF0700
:101E10007A0803110318013E03190F2FB0077B083E
:101E200003110318013E0319162FB1077C08031193
:101E30000318013E03191D2FB2070830F9000310E3
:101E4000A90DAA0DAB0DAC0DF90B1F2F2E082D07F8
:101E5000F900FA01FA0D7908823EB3007A080318F6
:101E6000013EFF3EB400512F0130F9000310AF0DC9
:101E7000B00DB10DB20DF90B362FAC1F402F412F15
:101E8000422F2F140130F9000310A90DAA0DAB0D3C
:101E9000AC0DF90B442FFF30B3070318B40AFF3021
:101EA000B407B11F542F552F342FAD01AC1F592F3C
:101EB0005A2F762FFF302905F900FF302A05FA0046
:101EC000FF302B05FB007F302C05FC007C087B04D9
:101ED0007A04790403196D2F6E2F712F0130AD0034
:101EE000762F2F1C742F752F762F6E2F2D08031928
:101EF0007A2F7B2FAC2F0130AF0700300318013051
:101F0000B007003003180130B1070030031801306A
:101F1000B207321C8C2F8D2FAC2F2F08F900300800
:101F2000FA003108FB003208FC000130FD007C0D96
:101F3000FC0CFB0CFA0CF90CFD0B972F7C08B20083
:101F40007B08B1007A08B0007908AF000130B30710
:101F50000318B40A0030B4073408803AFF00803018
:101F60007F02031DB52FFF303302031CB82FB92F9A
:101F7000C42F7F3083120313B2008030B1000030D1
:101F8000B0000030AF00F52F831203133408803AFD
:101F9000FF0080307F02031DCF2F01303302031872
:101FA000D22FD32FDF2F003083120313B200003063
:101FB000B1000030B0000030AF00A801F52F83124F
:101FC00003133308AE00FF30AF05FF30B0057F309C
:101FD000B1050030B2052E1CEE2FEF2FF02FB117F8
:101FE0002E08F9000310790CB2002808B204320858
:101FF000A3003108A2003008A1002F08A0000800AB
:1020000064008001840A04060319003404060128D0
:10201000F901FA01760884008313000884000A1687
:102020008A150A200A168A112A3A031D1828192827
:10203000452876088400013080077708840000086E
:10204000FF00023080077F0884000008F900840A3E
:102050000008FA0056287A08F1007908F0000A30E2
:10206000F2000030F3000A168A1574260A168A1147
:1020700078087007F9000030031801307107FA0082
:1020800076088400013083138007760884000008F6
:1020900084000A168A150A200A168A11D03EF80012
:1020A0000A307802031C552856282B287A08F70096
:1020B0007908F60008000310720D730DF900790815
:1020C000031D632864286D280030F3000030F200FF
:1020D0000030F1000030F000CE287008F4007108E4
:1020E000F5007208F6007308F7001F300310F70CB4
:1020F000F60CF50CF40CFF3E031D76287408F8006E
:10210000F217FF30F005FF30F105FF30F205003027
:10211000F3059630F902F91F8E288F28A728790831
:10212000803A973E0318952896289728642801300E
:102130000310F30CF20CF10CF00CFF3E031D982879
:102140000130F907031DA528A6289728BE282030AE
:102150007902031CAC28AD28B92864280130F400AA
:102160000310F00DF10DF20DF30DF40BB02801305A
:10217000F9027908031DBD28BE28AE287808031986
:10218000C228C328CE28F009F109F209F309F00AA0
:102190000319F10A0319F20A0319F30A0800720875
:1021A00073040319D428D528DB2872087304031D8F
:1021B000DA28DB28E22870080A128A1108200A1699
:1021C0008A1168297208093EF40073080318013E59
:1021D000003EF500740884008317751C8313000803
:1021E000F600840A0008F700760877040319F92836
:1021F000FA282C297208093EF40073080318013EDE
:10220000003EF500740884008317751C83130008D2
:10221000F600840A0008F7007208023EF80073080E
:102220000318013E003EF900780884008317791CEA
:1022300083130008FA00840A0008FB007B08803A38
:10224000FC007708803A7C02031D282976087A0270
:1022500003182B292C296829720884008317731C02
:1022600083130008F400840A0008F5007208023E97
:10227000F60073080318013E003EF700760884005C
:102280008317771C831300087407F9007508F8009A
:102290000318F80A801F4D29F8037808FA00790816
:1022A000840083177A1C8313700880007208023E32
:1022B000F40073080318013E003EF5007408840022
:1022C0008317751C831301308007840A0318800A62
:1022D0000800F2008312031308147208F00004309F
:1022E0000310F00CFF3E031D7029701878297C291B
:1022F0008312031308157F29831203130811720830
:10230000F00005300310F00CFF3E031D8229701809
:102310008A298E29831203138815912983120313A6
:1023200088117208F00006300310F00CFF3E031D08
:10233000942970189C29A029831203130816A32935
:102340008312031308127208F00007300310F00C18
:10235000FF3E031DA6297018AE29B229831203136C
:102360008816B5298312031388120A168A159C252C
:102370000A168A117218BD29C12983120313081580
:10238000C4298312031308117208F00001300310EE
:10239000F00CFF3E031DC7297018CF29D3298312E3
:1023A00003138815D6298312031388117208F000CD
:1023B00002300310F00CFF3E031DD9297018E129EB
:1023C000E529831203130816E82983120313081260
:1023D0007208F00003300310F00CFF3E031DEB29E0
:1023E0007018F329F729831203138816FA29831228
:1023F000031388120A168A159C250A168A110630BC
:10240000F1003030F000F00B032AF10B032A00003A
:102410000800F2008312031308107208F000043061
:102420000310F00CFF3E031D102A7018182A1C2AF6
:102430008312031308151F2A83120313081172084D
:10244000F00005300310F00CFF3E031D222A701827
:102450002A2A2E2A831203138815312A8312031382
:1024600088117208F00006300310F00CFF3E031DC7
:10247000342A70183C2A402A831203130816432A70
:102480008312031308127208F00007300310F00CD7
:10249000FF3E031D462A70184E2A522A8312031348
:1024A0008816552A8312031388120A168A159C254A
:1024B0000A168A118530F000F00B5C2A7218612A26
:1024C000652A831203130815682A8312031308115F
:1024D0007208F00001300310F00CFF3E031D6B2A60
:1024E0007018732A772A8312031388157A2A8312A5
:1024F000031388117208F00002300310F00CFF3E45
:10250000031D7D2A7018852A892A83120313081651
:102510008C2A8312031308127208F0000330031090
:10252000F00CFF3E031D8F2A7018972A9B2A8312F6
:10253000031388169E2A8312031388120A168A151B
:102540009C250A168A110630F1003030F000F00B9D
:10255000A72AF10BA72A00000800003083120313FA
:102560003505BD0000303605BE0080303705BF00A0
:102570007F303805C00040083F043E043D04031D81
:10258000C22AC32ACB2A0030B8000030B70000307E
:10259000B6000030B50000303905BD0000303A0506
:1025A000BE0080303B05BF007F303C05C0004008C6
:1025B0003F043E043D04031DDE2ADF2AE72A0030E3
:1025C000BC000030BB000030BA000030B900B81FBA
:1025D000EA2AEB2A0F2B0030BD000030BE0000308D
:1025E000BF008030C0003508BD023608031C360F1E
:1025F000FA2AFB2ABE023708031C370F002B012BD7
:10260000BF023808031C380F062B072BC0024008F6
:10261000B8003F08B7003E08B6003D08B500BC1F33
:10262000122B132B372B0030BD000030BE000030C2
:10263000BF008030C0003908BD023A08031C3A0FC1
:10264000222B232BBE023B08031C3B0F282B292BDC
:10265000BF023C08031C3C0F2E2B2F2BC00240084E
:10266000BC003F08BB003E08BA003D08B9008030FE
:10267000B8068030BC063C083802031D492B3B08D5
:102680003702031D492B3A083602031D492B39082E
:10269000350203184C2B4D2B4F2B0310502B0314DA
:1026A0000800F80078080319562B572B6B2BF31FE3
:1026B0005A2B5B2B6B2B7009FA007109FB00720916
:1026C000FC007309FD00FA0A0319FB0A0319FC0A4E
:1026D0000319FD0A732B7308FD007208FC007108D2
:1026E000FB007008FA007308720471047004031D83
:1026F0007A2B7B2B842B0030F3000030F20000306B
:10270000F1000030F000042C9630F900922B0130DB
:10271000F90701300310FD0CFC0CFB0CFA0CFF3E1A
:10272000031D8A2BFE307D05031D972B982B872BCD
:10273000B22B0130F9070130FA07003003180130DD
:10274000FB07003003180130FC070030031801308C
:10275000FD0701300310FD0CFC0CFB0CFA0CFF3ED6
:10276000031DAA2BFF307D05031DB72BB82B992B1A
:10277000C42B0130F9020130F4000310FA0DFB0DF7
:10278000FC0DFD0DF40BBD2BFC1BC72BC82BCE2B5A
:10279000023079020318CD2BCE2BB92B7918D12B0F
:1027A000D22BDA2BFF30FA05FF30FB057F30FC051A
:1027B000FF30FD050310F90C7908F400F501F6016E
:1027C000F70118300310F40DF50DF60DF70DFF3E6F
:1027D000031DE22B7408FA047508FB047608FC0458
:1027E0007708FD0478080319F62BF72BFC2BF31F51
:1027F000FA2BFB2BFC2BFD177D08F3007C08F20065
:102800007B08F1007A08F0000800831203135B08CC
:1028100084008313000884000A168A150A200A1609
:102820008A11253A031D152C162CD92C5B0884001F
:102830000130800783160313E401E5010030E8004E
:10284000FF30E600FF30E700831203135B088400CB
:10285000000884000A168A150A200A168A112E3AE0
:10286000031D332C342C472C5B0884000130800777
:102870005B08F6005C08F7000A168A1108200A16A1
:102880008A11770883160313E7007608E60083129F
:102890005B08840083130008E400640884000A16BF
:1028A0008A150A200A168A11E3005E2C0130E4071B
:1028B000692C6C30E300692CE301692C63084C3A05
:1028C0000319562C2A3A0319592C0A3A0319562C83
:1028D0005C2C640884000A168A150A200A168A11DC
:1028E000663A031D742C752CD12C9E2C5C08840038
:1028F0000008FF00043080077F0884000008DF0024
:10290000840A0008E000840A0008E100840A000844
:10291000E200A62C5C0884000008FF000430800759
:102920007F0884000008DF00840A0008E000840AB1
:102930000008E100840A0008E200A62C63084C3A73
:1029400003198A2C203A0319762CA62C5B088400E4
:102950006408013E8000C62C5908CE005A08CF00FA
:102960006208D3006108D2006008D1005F08D0007F
:10297000640884000A168A150A200A168A11D400EF
:102980000A168A11E6250A168A11F22C64088400B8
:102990000A168A150A200A168A11663A0319AC2CFF
:1029A000D12C831203135B0884000130831380074A
:1029B000F22C5B088400000884000A168A150A209D
:1029C0000A168A11DD00DE015D08F0005E08F100E4
:1029D0005908F2005A08F3000A168A11CF200A1685
:1029E0008A11D12C08007130831603138F00071051
:1029F00087140A168A153E270A168A110A168A159E
:102A0000B0250A168A11F301F30A01300A168A1555
:102A1000EE250A168A111C30F3008030F4000A16E5
:102A20008A1599260A168A11103083160313DB00C3
:102A30003930DA000D30D900D90B1C2DDA0B1C2DE2
:102A4000DB0B1C2D0A168A15A4250A168A114130A3
:102A500083160313D900D90B2B2D2E2D0A168A1598
:102A600076270A168A11710883160317A5007008C5
:102A7000A400423083120313A3006830A200003088
:102A8000A1000030A000831603172408F0002508D9
:102A9000F100F201F30100300A168A1151230A16DF
:102AA0008A11730883120313A7007208A600710825
:102AB000A5007008A4000A128A1598200A168A1127
:102AC00083120313230883160317A300831203132F
:102AD000220883160317A20083120313210883160A
:102AE0000317A10083120313200883160317A00005
:102AF0000A168A15B0250A168A11F301F30A013065
:102B00000A168A15EE250A168A110F30F300803056
:102B1000F4000A168A1599260A168A11F301F30A97
:102B200002300A168A15EE250A168A118316031733
:102B300024082504031D9D2D9E2DA82D0130F30092
:102B40008030F4000A168A1599260A168A11D42DA7
:102B5000903083120313EA002930EB008316031729
:102B6000230883120313EF0083160317220883122E
:102B70000313EE0083160317210883120313ED00DD
:102B800083160317200883120313EC000A168A1514
:102B900011270A168A119030F3000130F4000A164A
:102BA0008A1599260A168A11063083160313DB004C
:102BB0001330DA00AD30D900D90BDC2DDA0BDC2D67
:102BC000DB0BDC2D222D0A128A1100288316031339
:102BD000C10183120313530883160313C700831222
:102BE0000313520883160313C600831203135108FC
:102BF00083160313C50083120313500883160313AF
:102C0000C400470883120313B80083160313460851
:102C100083120313B70083160313450883120313AB
:102C2000B60083160313440883120313B500003063
:102C3000BC000030BB000030BA000030B9000A16FA
:102C40008A11AD220A168A110318272E282E432E28
:102C5000013083160313C1004708F3004608F20051
:102C60004508F1004408F0000A128A1500200A16EF
:102C70008A11730883160313C7007208C60071080F
:102C8000C5007008C40083160313C201C3016508A0
:102C9000B2006408B100410803194F2E502E602E77
:102CA0004108031D542E552E5A2E2B30A6000030FD
:102CB000A7005E2E2D30A6000030A7002608C10018
:102CC0004708F3004608F2004508F1004408F00008
:102CD0000A128A150B200A168A1170037104031D4B
:102CE000722E732EB82E8316031341080319792E02
:102CF0007A2E8A2E4108831203179000FF30831624
:102D00000313B1070318B20AFF30B2070130C20043
:102D10000030C3004208103EF0003530F1000A16C2
:102D20008A15D5250A168A11FD3083160313B107BB
:102D30000318B20AFF30B207831203134E08A8002B
:102D40004F08A9001030AA0083160313320883121B
:102D50000313AC0083160313310883120313AB0073
:102D60000A128A1109200A168A110A128A11E92FF9
:102D7000831603134708F3004608F2004508F100E4
:102D80004408F0000A128A150B200A168A117008EE
:102D90007104031DCC2ECF2E0A128A1147288316E8
:102DA000031341080319D52ED62EE62E41088312AF
:102DB00003179000FF3083160313B1070318B20AFC
:102DC000FF30B2070130C2000030C3004208103E9D
:102DD000F0003930F1000A168A15D5250A168A1135
:102DE000942E831603135F0883120313CD008316FA
:102DF00003135E0883120313CC00831603135D08CC
:102E000083120313CB00831603135C08831203138E
:102E1000CA003D08CD003C08CC003B08CB003A0876
:102E2000CA004A08BE004B08BF004C08C0004D084D
:102E3000C10017300310C10CC00CBF0CBE0CFF3E0C
:102E4000031D1A2FFF303E05C20000303F05C300AE
:102E50004208813EC80043080318013EFF3EC900F6
:102E60004908803AFF0080307F02031D392F173058
:102E70004802031C3C2F3D2F3E2FFF2F83120313CC
:102E8000C91B432F442FB42F480AFF00FF30BE0058
:102E9000FF30BF007F30C0000030C100542F410D13
:102EA000C10CC00CBF0CBE0CFF0B4F2F4108C7005C
:102EB0004008C6003F08C5003E08C40044084A0553
:102EC000BE0045084B05BF0046084C05C00047083A
:102ED0004D05C100410840043F043E04031D712F0D
:102EE000722F732F3D2F4A08BE004B08BF004C08BD
:102EF000C0004D08C1001F300310C10CC00CBF0C36
:102F0000BE0CFF3E031D7C2F410840043F043E04DD
:102F100003198B2F8C2FA32F4408CA0745080311D0
:102F20000318013E0319952FCB0746080311031818
:102F3000013E03199C2FCC07470803110318013EDB
:102F40000319A32FCD074409BE004509BF00460958
:102F5000C0004709C1003E08CA053F08CB0540082C
:102F6000CC054108CD05F72F4A08BE004B08BF002D
:102F70004C08C0004D08C1001F300310C10CC00C2C
:102F8000BF0CBE0CFF3E031DBD2F410840043F0493
:102F90003E04031DCC2FCD2FD62F0030CD000030A6
:102FA000CC000030CB000030CA00F72F4A08BE002A
:102FB0004B08BF004C08C0004D08C1000130031091
:102FC000BE0DBF0DC00DC10DFF3E031DDF2F41081B
:102FD00040043F043E040319EE2FEF2FF72FBF30BC
:102FE000CD008030CC000030CB000030CA004D084E
:102FF000BD004C08BC004B08BB004A08BA000800E2
:10300000FF1B0A2883137F1883170008840A0319FB
:10301000FF0A080018308A000408840A8207003476
:10302000533469346E3420347234653473347034FC
:103030007534653473347434613400344C34613421
:103040002034643469347334743461346E346334DA
:10305000693461340034533465346E3473346F34FE
:103060007234203455346C34743472346134003426
:10307000653473343A34203425342E343234663493
:10308000203463346D34003469346E346634003473
:083090006E3461346E3400342B
:103B3800831203138814A02D83120313881008001E
:103B48008312031307140630F000F00BA92D0000B0
:103B5800831203130710080001300A168A1109227C
:103B68000A168A150630F4003030F300F30BBA2D2C
:103B7800F40BBA2D00000800F31BC32DC42DC52D6E
:103B8800D42D7009F0007109F1007209F20073096F
:103B9800F300F00A0319F10A0319F20A0319F30AE8
:103BA80008007008F2000130F107FF307107840047
:103BB8000A168A150A200A168A15FF007208F20AE0
:103BC80084007F08831780000008031DEC2DED2D6D
:103BD800D72D0800F40074030319F32DF42DFC2DE0
:103BE8007308BF3EF500003003180130F600032EBD
:103BF80073087F3EF500003003180130F6007508A1
:103C0800F70077080A168A1109220A168A15080089
:103C18007108F6007008F5001E2E760884008317D8
:103C28000008F4000130F607750884007408800065
:103C38000130F5070130F2020030031CF303F302F0
:103C4800720A031D2B2E730A031D2B2E2C2E112EE8
:103C58000800831203136708E9003F2E6508D9009E
:103C68006608DA006930DB006808DC000A168A1189
:103C780005240A168A1583120313690884000A1694
:103C88008A150A200A168A15003A031D4C2E4D2E55
:103C9800322EE501E6010800803083120313B806CE
:103CA8003C08F3003B08F2003A08F1003908F0003C
:103CB8003808F7003708F6003608F5003508F4002C
:103CC8000A128A1562220A168A15730883120313C8
:103CD800B8007208B7007108B6007008B50008008F
:103CE800F401F501701C792E7A2E802E7208F407E3
:103CF8000318F50A7308F50701300310F20DF30DE8
:103D0800FF3E031D812E01300310F10CF00CFF3E25
:103D1800031D882E70087104031D932E942E762E91
:103D28007508F1007408F0000800AE2E7408FF0052
:103D3800730884000A168A1500200A168A150A16BE
:103D48008A1169210A168A150130F3070318F40A43
:103D58000030F407740883120313FF00730884000B
:103D68000A168A1500200A168A15003A031DBD2E68
:103D7800BE2E9A2E0800F800F401F5017008F20032
:103D8800F3017208F6007308F700781CCC2ECD2ECC
:103D9800D32E7608F4070318F50A7708F5070130DB
:103DA8000310F60DF70DFF3E031DD42E0310F80C7B
:103DB8007808031DE02EE12EC92E7508F10074085D
:103DC800F000080083120313A601A701032F25089A
:103DD800A300A4012308F0002408F1002108F20040
:103DE8002208F3000A168A11CF200A168A15013014
:103DF80083120313A6070318A70A0030A70726088B
:103E08002007A3002308840083170008A5002508BD
:103E1800031D0F2F102FEB2E08006C308316031391
:103E2800CD00831203136A0883160313CE000130F2
:103E3800CF00D001D101D701D801CE3083120313AE
:103E4800E5000030E6006B08E700CD30E8000A1610
:103E58008A152D260A168A1583160313500883120D
:103E680003136A0783160313CC004C0884008317D6
:103E78008001080083160313880183120313881036
:103E880008103430F400F130F300F30B492FF40B31
:103E9800492F4E2F02300A168A1109220A168A154E
:103EA80028300A168A1109220A168A150C300A16B1
:103EB8008A1109220A168A1506300A168A11092259
:103EC8000A168A1501300A168A1109220A168A1555
:103ED8000630F4003030F300F30B702FF40B702F22
:103EE80000000800F401F5018312031387187D2FE1
:103EF8007E2F8E2F7508F3007408F200F40A031958
:103F0800F50A75307302303003197202031C8D2FC5
:103F18008E2F782F75307502303003197402031C08
:103F2800962F972F9A2FF001F101B12F8E018F0153
:103F3800103090001014871CA22FA32FAC2F7530BF
:103F48000F02303003190E02031CAB2FAC2F9F2F2A
:103F580010100F08F1000E08F0000800003070057E
:103F6800F80000307105F90080307205FA007F30E2
:103F78007305FB007B087A0479047804031DC52FB8
:103F8800C62FCE2F0030F3000030F2000030F100D1
:103F98000030F00000307405F80000307505F900B5
:103FA80080307605FA007F307705FB007B087A04BD
:103FB80079047804031DE12FE22FEA2F0030F7007F
:103FC8000030F6000030F5000030F4007708730682
:103FD800031DF82F76087206031DF82F7508710661
:103FE800031DF82F740870060319FB2FFC2FFE2FF2
:083FF8000310FF2F0314080061
:04400E00F420FF3F5C
:00000001FF
